{"erc721a/contracts/ERC721A.sol":{"ERC721A":{"abi":[{"inputs":[{"internalType":"string","name":"name_","type":"string"},{"internalType":"string","name":"symbol_","type":"string"}],"stateMutability":"nonpayable","type":"constructor"},{"inputs":[],"name":"ApprovalCallerNotOwnerNorApproved","type":"error"},{"inputs":[],"name":"ApprovalQueryForNonexistentToken","type":"error"},{"inputs":[],"name":"BalanceQueryForZeroAddress","type":"error"},{"inputs":[],"name":"MintERC2309QuantityExceedsLimit","type":"error"},{"inputs":[],"name":"MintToZeroAddress","type":"error"},{"inputs":[],"name":"MintZeroQuantity","type":"error"},{"inputs":[],"name":"OwnerQueryForNonexistentToken","type":"error"},{"inputs":[],"name":"OwnershipNotInitializedForExtraData","type":"error"},{"inputs":[],"name":"TransferCallerNotOwnerNorApproved","type":"error"},{"inputs":[],"name":"TransferFromIncorrectOwner","type":"error"},{"inputs":[],"name":"TransferToNonERC721ReceiverImplementer","type":"error"},{"inputs":[],"name":"TransferToZeroAddress","type":"error"},{"inputs":[],"name":"URIQueryForNonexistentToken","type":"error"},{"anonymous":false,"inputs":[{"indexed":true,"internalType":"address","name":"owner","type":"address"},{"indexed":true,"internalType":"address","name":"approved","type":"address"},{"indexed":true,"internalType":"uint256","name":"tokenId","type":"uint256"}],"name":"Approval","type":"event"},{"anonymous":false,"inputs":[{"indexed":true,"internalType":"address","name":"owner","type":"address"},{"indexed":true,"internalType":"address","name":"operator","type":"address"},{"indexed":false,"internalType":"bool","name":"approved","type":"bool"}],"name":"ApprovalForAll","type":"event"},{"anonymous":false,"inputs":[{"indexed":true,"internalType":"uint256","name":"fromTokenId","type":"uint256"},{"indexed":false,"internalType":"uint256","name":"toTokenId","type":"uint256"},{"indexed":true,"internalType":"address","name":"from","type":"address"},{"indexed":true,"internalType":"address","name":"to","type":"address"}],"name":"ConsecutiveTransfer","type":"event"},{"anonymous":false,"inputs":[{"indexed":true,"internalType":"address","name":"from","type":"address"},{"indexed":true,"internalType":"address","name":"to","type":"address"},{"indexed":true,"internalType":"uint256","name":"tokenId","type":"uint256"}],"name":"Transfer","type":"event"},{"inputs":[{"internalType":"address","name":"to","type":"address"},{"internalType":"uint256","name":"tokenId","type":"uint256"}],"name":"approve","outputs":[],"stateMutability":"payable","type":"function"},{"inputs":[{"internalType":"address","name":"owner","type":"address"}],"name":"balanceOf","outputs":[{"internalType":"uint256","name":"","type":"uint256"}],"stateMutability":"view","type":"function"},{"inputs":[{"internalType":"uint256","name":"tokenId","type":"uint256"}],"name":"getApproved","outputs":[{"internalType":"address","name":"","type":"address"}],"stateMutability":"view","type":"function"},{"inputs":[{"internalType":"address","name":"owner","type":"address"},{"internalType":"address","name":"operator","type":"address"}],"name":"isApprovedForAll","outputs":[{"internalType":"bool","name":"","type":"bool"}],"stateMutability":"view","type":"function"},{"inputs":[],"name":"name","outputs":[{"internalType":"string","name":"","type":"string"}],"stateMutability":"view","type":"function"},{"inputs":[{"internalType":"uint256","name":"tokenId","type":"uint256"}],"name":"ownerOf","outputs":[{"internalType":"address","name":"","type":"address"}],"stateMutability":"view","type":"function"},{"inputs":[{"internalType":"address","name":"from","type":"address"},{"internalType":"address","name":"to","type":"address"},{"internalType":"uint256","name":"tokenId","type":"uint256"}],"name":"safeTransferFrom","outputs":[],"stateMutability":"payable","type":"function"},{"inputs":[{"internalType":"address","name":"from","type":"address"},{"internalType":"address","name":"to","type":"address"},{"internalType":"uint256","name":"tokenId","type":"uint256"},{"internalType":"bytes","name":"_data","type":"bytes"}],"name":"safeTransferFrom","outputs":[],"stateMutability":"payable","type":"function"},{"inputs":[{"internalType":"address","name":"operator","type":"address"},{"internalType":"bool","name":"approved","type":"bool"}],"name":"setApprovalForAll","outputs":[],"stateMutability":"nonpayable","type":"function"},{"inputs":[{"internalType":"bytes4","name":"interfaceId","type":"bytes4"}],"name":"supportsInterface","outputs":[{"internalType":"bool","name":"","type":"bool"}],"stateMutability":"view","type":"function"},{"inputs":[],"name":"symbol","outputs":[{"internalType":"string","name":"","type":"string"}],"stateMutability":"view","type":"function"},{"inputs":[{"internalType":"uint256","name":"tokenId","type":"uint256"}],"name":"tokenURI","outputs":[{"internalType":"string","name":"","type":"string"}],"stateMutability":"view","type":"function"},{"inputs":[],"name":"totalSupply","outputs":[{"internalType":"uint256","name":"","type":"uint256"}],"stateMutability":"view","type":"function"},{"inputs":[{"internalType":"address","name":"from","type":"address"},{"internalType":"address","name":"to","type":"address"},{"internalType":"uint256","name":"tokenId","type":"uint256"}],"name":"transferFrom","outputs":[],"stateMutability":"payable","type":"function"}],"evm":{"bytecode":{"linkReferences":{},"object":"60806040523480156200001157600080fd5b5060405162000fdf38038062000fdf8339810160408190526200003491620001df565b8151620000499060029060208501906200006c565b5080516200005f9060039060208401906200006c565b5050600080555062000286565b8280546200007a9062000249565b90600052602060002090601f0160209004810192826200009e5760008555620000e9565b82601f10620000b957805160ff1916838001178555620000e9565b82800160010185558215620000e9579182015b82811115620000e9578251825591602001919060010190620000cc565b50620000f7929150620000fb565b5090565b5b80821115620000f75760008155600101620000fc565b634e487b7160e01b600052604160045260246000fd5b600082601f8301126200013a57600080fd5b81516001600160401b038082111562000157576200015762000112565b604051601f8301601f19908116603f0116810190828211818310171562000182576200018262000112565b816040528381526020925086838588010111156200019f57600080fd5b600091505b83821015620001c35785820183015181830184015290820190620001a4565b83821115620001d55760008385830101525b9695505050505050565b60008060408385031215620001f357600080fd5b82516001600160401b03808211156200020b57600080fd5b620002198683870162000128565b935060208501519150808211156200023057600080fd5b506200023f8582860162000128565b9150509250929050565b600181811c908216806200025e57607f821691505b602082108114156200028057634e487b7160e01b600052602260045260246000fd5b50919050565b610d4980620002966000396000f3fe6080604052600436106100bd5760003560e01c80636352211e1161006f5780636352211e146101af57806370a08231146101cf57806395d89b41146101ef578063a22cb46514610204578063b88d4fde14610224578063c87b56dd14610237578063e985e9c51461025757600080fd5b806301ffc9a7146100c257806306fdde03146100f7578063081812fc14610119578063095ea7b31461015157806318160ddd1461016657806323b872dd1461018957806342842e0e1461019c575b600080fd5b3480156100ce57600080fd5b506100e26100dd3660046109b0565b6102a0565b60405190151581526020015b60405180910390f35b34801561010357600080fd5b5061010c6102f2565b6040516100ee9190610a25565b34801561012557600080fd5b50610139610134366004610a38565b610384565b6040516001600160a01b0390911681526020016100ee565b61016461015f366004610a6d565b6103c8565b005b34801561017257600080fd5b50600154600054035b6040519081526020016100ee565b610164610197366004610a97565b610468565b6101646101aa366004610a97565b6105f9565b3480156101bb57600080fd5b506101396101ca366004610a38565b610619565b3480156101db57600080fd5b5061017b6101ea366004610ad3565b610624565b3480156101fb57600080fd5b5061010c610673565b34801561021057600080fd5b5061016461021f366004610aee565b610682565b610164610232366004610b40565b6106ee565b34801561024357600080fd5b5061010c610252366004610a38565b610738565b34801561026357600080fd5b506100e2610272366004610c1c565b6001600160a01b03918216600090815260076020908152604080832093909416825291909152205460ff1690565b60006301ffc9a760e01b6001600160e01b0319831614806102d157506380ac58cd60e01b6001600160e01b03198316145b806102ec5750635b5e139f60e01b6001600160e01b03198316145b92915050565b60606002805461030190610c4f565b80601f016020809104026020016040519081016040528092919081815260200182805461032d90610c4f565b801561037a5780601f1061034f5761010080835404028352916020019161037a565b820191906000526020600020905b81548152906001019060200180831161035d57829003601f168201915b5050505050905090565b600061038f826107ca565b6103ac576040516333d1c03960e21b815260040160405180910390fd5b506000908152600660205260409020546001600160a01b031690565b60006103d382610619565b9050336001600160a01b0382161461040c576103ef8133610272565b61040c576040516367d9dca160e11b815260040160405180910390fd5b60008281526006602052604080822080546001600160a01b0319166001600160a01b0387811691821790925591518593918516917f8c5be1e5ebec7d5bd14f71427d1e84f3dd0314c0f7b2291e5b200ac8c7c3b92591a4505050565b6000610473826107f1565b9050836001600160a01b0316816001600160a01b0316146104a65760405162a1148160e81b815260040160405180910390fd5b60008281526006602052604090208054338082146001600160a01b038816909114176104f3576104d68633610272565b6104f357604051632ce44b5f60e11b815260040160405180910390fd5b6001600160a01b03851661051a57604051633a954ecd60e21b815260040160405180910390fd5b801561052557600082555b6001600160a01b038681166000908152600560205260408082208054600019019055918716808252919020805460010190554260a01b17600160e11b17600085815260046020526040902055600160e11b83166105b057600184016000818152600460205260409020546105ae5760005481146105ae5760008181526004602052604090208490555b505b83856001600160a01b0316876001600160a01b03167fddf252ad1be2c89b69c2b068fc378daa952ba7f163c4a11628f55a4df523b3ef60405160405180910390a4505050505050565b610614838383604051806020016040528060008152506106ee565b505050565b60006102ec826107f1565b60006001600160a01b03821661064d576040516323d3ad8160e21b815260040160405180910390fd5b506001600160a01b031660009081526005602052604090205467ffffffffffffffff1690565b60606003805461030190610c4f565b3360008181526007602090815260408083206001600160a01b03871680855290835292819020805460ff191686151590811790915590519081529192917f17307eab39ab6107e8899845ad3d59bd9653f200f220920489ca2b5937696c31910160405180910390a35050565b6106f9848484610468565b6001600160a01b0383163b156107325761071584848484610852565b610732576040516368d2bf6b60e11b815260040160405180910390fd5b50505050565b6060610743826107ca565b61076057604051630a14c4b560e41b815260040160405180910390fd5b600061077760408051602081019091526000815290565b905080516000141561079857604051806020016040528060008152506107c3565b806107a284610949565b6040516020016107b3929190610c8a565b6040516020818303038152906040525b9392505050565b60008054821080156102ec575050600090815260046020526040902054600160e01b161590565b60008160005481101561083957600081815260046020526040902054600160e01b8116610837575b806107c3575060001901600081815260046020526040902054610819565b505b604051636f96cda160e11b815260040160405180910390fd5b604051630a85bd0160e11b81526000906001600160a01b0385169063150b7a0290610887903390899088908890600401610cb9565b602060405180830381600087803b1580156108a157600080fd5b505af19250505080156108d1575060408051601f3d908101601f191682019092526108ce91810190610cf6565b60015b61092c573d8080156108ff576040519150601f19603f3d011682016040523d82523d6000602084013e610904565b606091505b508051610924576040516368d2bf6b60e11b815260040160405180910390fd5b805181602001fd5b6001600160e01b031916630a85bd0160e11b149050949350505050565b606060a06040510180604052602081039150506000815280825b600183039250600a81066030018353600a90048061098057610985565b610963565b50819003601f19909101908152919050565b6001600160e01b0319811681146109ad57600080fd5b50565b6000602082840312156109c257600080fd5b81356107c381610997565b60005b838110156109e85781810151838201526020016109d0565b838111156107325750506000910152565b60008151808452610a118160208601602086016109cd565b601f01601f19169290920160200192915050565b6020815260006107c360208301846109f9565b600060208284031215610a4a57600080fd5b5035919050565b80356001600160a01b0381168114610a6857600080fd5b919050565b60008060408385031215610a8057600080fd5b610a8983610a51565b946020939093013593505050565b600080600060608486031215610aac57600080fd5b610ab584610a51565b9250610ac360208501610a51565b9150604084013590509250925092565b600060208284031215610ae557600080fd5b6107c382610a51565b60008060408385031215610b0157600080fd5b610b0a83610a51565b915060208301358015158114610b1f57600080fd5b809150509250929050565b634e487b7160e01b600052604160045260246000fd5b60008060008060808587031215610b5657600080fd5b610b5f85610a51565b9350610b6d60208601610a51565b925060408501359150606085013567ffffffffffffffff80821115610b9157600080fd5b818701915087601f830112610ba557600080fd5b813581811115610bb757610bb7610b2a565b604051601f8201601f19908116603f01168101908382118183101715610bdf57610bdf610b2a565b816040528281528a6020848701011115610bf857600080fd5b82602086016020830137600060208483010152809550505050505092959194509250565b60008060408385031215610c2f57600080fd5b610c3883610a51565b9150610c4660208401610a51565b90509250929050565b600181811c90821680610c6357607f821691505b60208210811415610c8457634e487b7160e01b600052602260045260246000fd5b50919050565b60008351610c9c8184602088016109cd565b835190830190610cb08183602088016109cd565b01949350505050565b6001600160a01b0385811682528416602082015260408101839052608060608201819052600090610cec908301846109f9565b9695505050505050565b600060208284031215610d0857600080fd5b81516107c38161099756fea264697066735822122049481601207defb4066563b038052a4fb15bbed45670ca9474d661d6cf3821f064736f6c63430008090033","opcodes":"PUSH1 0x80 PUSH1 0x40 MSTORE CALLVALUE DUP1 ISZERO PUSH3 0x11 JUMPI PUSH1 0x0 DUP1 REVERT JUMPDEST POP PUSH1 0x40 MLOAD PUSH3 0xFDF CODESIZE SUB DUP1 PUSH3 0xFDF DUP4 CODECOPY DUP2 ADD PUSH1 0x40 DUP2 SWAP1 MSTORE PUSH3 0x34 SWAP2 PUSH3 0x1DF JUMP JUMPDEST DUP2 MLOAD PUSH3 0x49 SWAP1 PUSH1 0x2 SWAP1 PUSH1 0x20 DUP6 ADD SWAP1 PUSH3 0x6C JUMP JUMPDEST POP DUP1 MLOAD PUSH3 0x5F SWAP1 PUSH1 0x3 SWAP1 PUSH1 0x20 DUP5 ADD SWAP1 PUSH3 0x6C JUMP JUMPDEST POP POP PUSH1 0x0 DUP1 SSTORE POP PUSH3 0x286 JUMP JUMPDEST DUP3 DUP1 SLOAD PUSH3 0x7A SWAP1 PUSH3 0x249 JUMP JUMPDEST SWAP1 PUSH1 0x0 MSTORE PUSH1 0x20 PUSH1 0x0 KECCAK256 SWAP1 PUSH1 0x1F ADD PUSH1 0x20 SWAP1 DIV DUP2 ADD SWAP3 DUP3 PUSH3 0x9E JUMPI PUSH1 0x0 DUP6 SSTORE PUSH3 0xE9 JUMP JUMPDEST DUP3 PUSH1 0x1F LT PUSH3 0xB9 JUMPI DUP1 MLOAD PUSH1 0xFF NOT AND DUP4 DUP1 ADD OR DUP6 SSTORE PUSH3 0xE9 JUMP JUMPDEST DUP3 DUP1 ADD PUSH1 0x1 ADD DUP6 SSTORE DUP3 ISZERO PUSH3 0xE9 JUMPI SWAP2 DUP3 ADD JUMPDEST DUP3 DUP2 GT ISZERO PUSH3 0xE9 JUMPI DUP3 MLOAD DUP3 SSTORE SWAP2 PUSH1 0x20 ADD SWAP2 SWAP1 PUSH1 0x1 ADD SWAP1 PUSH3 0xCC JUMP JUMPDEST POP PUSH3 0xF7 SWAP3 SWAP2 POP PUSH3 0xFB JUMP JUMPDEST POP SWAP1 JUMP JUMPDEST JUMPDEST DUP1 DUP3 GT ISZERO PUSH3 0xF7 JUMPI PUSH1 0x0 DUP2 SSTORE PUSH1 0x1 ADD PUSH3 0xFC JUMP JUMPDEST PUSH4 0x4E487B71 PUSH1 0xE0 SHL PUSH1 0x0 MSTORE PUSH1 0x41 PUSH1 0x4 MSTORE PUSH1 0x24 PUSH1 0x0 REVERT JUMPDEST PUSH1 0x0 DUP3 PUSH1 0x1F DUP4 ADD SLT PUSH3 0x13A JUMPI PUSH1 0x0 DUP1 REVERT JUMPDEST DUP2 MLOAD PUSH1 0x1 PUSH1 0x1 PUSH1 0x40 SHL SUB DUP1 DUP3 GT ISZERO PUSH3 0x157 JUMPI PUSH3 0x157 PUSH3 0x112 JUMP JUMPDEST PUSH1 0x40 MLOAD PUSH1 0x1F DUP4 ADD PUSH1 0x1F NOT SWAP1 DUP2 AND PUSH1 0x3F ADD AND DUP2 ADD SWAP1 DUP3 DUP3 GT DUP2 DUP4 LT OR ISZERO PUSH3 0x182 JUMPI PUSH3 0x182 PUSH3 0x112 JUMP JUMPDEST DUP2 PUSH1 0x40 MSTORE DUP4 DUP2 MSTORE PUSH1 0x20 SWAP3 POP DUP7 DUP4 DUP6 DUP9 ADD ADD GT ISZERO PUSH3 0x19F JUMPI PUSH1 0x0 DUP1 REVERT JUMPDEST PUSH1 0x0 SWAP2 POP JUMPDEST DUP4 DUP3 LT ISZERO PUSH3 0x1C3 JUMPI DUP6 DUP3 ADD DUP4 ADD MLOAD DUP2 DUP4 ADD DUP5 ADD MSTORE SWAP1 DUP3 ADD SWAP1 PUSH3 0x1A4 JUMP JUMPDEST DUP4 DUP3 GT ISZERO PUSH3 0x1D5 JUMPI PUSH1 0x0 DUP4 DUP6 DUP4 ADD ADD MSTORE JUMPDEST SWAP7 SWAP6 POP POP POP POP POP POP JUMP JUMPDEST PUSH1 0x0 DUP1 PUSH1 0x40 DUP4 DUP6 SUB SLT ISZERO PUSH3 0x1F3 JUMPI PUSH1 0x0 DUP1 REVERT JUMPDEST DUP3 MLOAD PUSH1 0x1 PUSH1 0x1 PUSH1 0x40 SHL SUB DUP1 DUP3 GT ISZERO PUSH3 0x20B JUMPI PUSH1 0x0 DUP1 REVERT JUMPDEST PUSH3 0x219 DUP7 DUP4 DUP8 ADD PUSH3 0x128 JUMP JUMPDEST SWAP4 POP PUSH1 0x20 DUP6 ADD MLOAD SWAP2 POP DUP1 DUP3 GT ISZERO PUSH3 0x230 JUMPI PUSH1 0x0 DUP1 REVERT JUMPDEST POP PUSH3 0x23F DUP6 DUP3 DUP7 ADD PUSH3 0x128 JUMP JUMPDEST SWAP2 POP POP SWAP3 POP SWAP3 SWAP1 POP JUMP JUMPDEST PUSH1 0x1 DUP2 DUP2 SHR SWAP1 DUP3 AND DUP1 PUSH3 0x25E JUMPI PUSH1 0x7F DUP3 AND SWAP2 POP JUMPDEST PUSH1 0x20 DUP3 LT DUP2 EQ ISZERO PUSH3 0x280 JUMPI PUSH4 0x4E487B71 PUSH1 0xE0 SHL PUSH1 0x0 MSTORE PUSH1 0x22 PUSH1 0x4 MSTORE PUSH1 0x24 PUSH1 0x0 REVERT JUMPDEST POP SWAP2 SWAP1 POP JUMP JUMPDEST PUSH2 0xD49 DUP1 PUSH3 0x296 PUSH1 0x0 CODECOPY PUSH1 0x0 RETURN INVALID PUSH1 0x80 PUSH1 0x40 MSTORE PUSH1 0x4 CALLDATASIZE LT PUSH2 0xBD JUMPI PUSH1 0x0 CALLDATALOAD PUSH1 0xE0 SHR DUP1 PUSH4 0x6352211E GT PUSH2 0x6F JUMPI DUP1 PUSH4 0x6352211E EQ PUSH2 0x1AF JUMPI DUP1 PUSH4 0x70A08231 EQ PUSH2 0x1CF JUMPI DUP1 PUSH4 0x95D89B41 EQ PUSH2 0x1EF JUMPI DUP1 PUSH4 0xA22CB465 EQ PUSH2 0x204 JUMPI DUP1 PUSH4 0xB88D4FDE EQ PUSH2 0x224 JUMPI DUP1 PUSH4 0xC87B56DD EQ PUSH2 0x237 JUMPI DUP1 PUSH4 0xE985E9C5 EQ PUSH2 0x257 JUMPI PUSH1 0x0 DUP1 REVERT JUMPDEST DUP1 PUSH4 0x1FFC9A7 EQ PUSH2 0xC2 JUMPI DUP1 PUSH4 0x6FDDE03 EQ PUSH2 0xF7 JUMPI DUP1 PUSH4 0x81812FC EQ PUSH2 0x119 JUMPI DUP1 PUSH4 0x95EA7B3 EQ PUSH2 0x151 JUMPI DUP1 PUSH4 0x18160DDD EQ PUSH2 0x166 JUMPI DUP1 PUSH4 0x23B872DD EQ PUSH2 0x189 JUMPI DUP1 PUSH4 0x42842E0E EQ PUSH2 0x19C JUMPI JUMPDEST PUSH1 0x0 DUP1 REVERT JUMPDEST CALLVALUE DUP1 ISZERO PUSH2 0xCE JUMPI PUSH1 0x0 DUP1 REVERT JUMPDEST POP PUSH2 0xE2 PUSH2 0xDD CALLDATASIZE PUSH1 0x4 PUSH2 0x9B0 JUMP JUMPDEST PUSH2 0x2A0 JUMP JUMPDEST PUSH1 0x40 MLOAD SWAP1 ISZERO ISZERO DUP2 MSTORE PUSH1 0x20 ADD JUMPDEST PUSH1 0x40 MLOAD DUP1 SWAP2 SUB SWAP1 RETURN JUMPDEST CALLVALUE DUP1 ISZERO PUSH2 0x103 JUMPI PUSH1 0x0 DUP1 REVERT JUMPDEST POP PUSH2 0x10C PUSH2 0x2F2 JUMP JUMPDEST PUSH1 0x40 MLOAD PUSH2 0xEE SWAP2 SWAP1 PUSH2 0xA25 JUMP JUMPDEST CALLVALUE DUP1 ISZERO PUSH2 0x125 JUMPI PUSH1 0x0 DUP1 REVERT JUMPDEST POP PUSH2 0x139 PUSH2 0x134 CALLDATASIZE PUSH1 0x4 PUSH2 0xA38 JUMP JUMPDEST PUSH2 0x384 JUMP JUMPDEST PUSH1 0x40 MLOAD PUSH1 0x1 PUSH1 0x1 PUSH1 0xA0 SHL SUB SWAP1 SWAP2 AND DUP2 MSTORE PUSH1 0x20 ADD PUSH2 0xEE JUMP JUMPDEST PUSH2 0x164 PUSH2 0x15F CALLDATASIZE PUSH1 0x4 PUSH2 0xA6D JUMP JUMPDEST PUSH2 0x3C8 JUMP JUMPDEST STOP JUMPDEST CALLVALUE DUP1 ISZERO PUSH2 0x172 JUMPI PUSH1 0x0 DUP1 REVERT JUMPDEST POP PUSH1 0x1 SLOAD PUSH1 0x0 SLOAD SUB JUMPDEST PUSH1 0x40 MLOAD SWAP1 DUP2 MSTORE PUSH1 0x20 ADD PUSH2 0xEE JUMP JUMPDEST PUSH2 0x164 PUSH2 0x197 CALLDATASIZE PUSH1 0x4 PUSH2 0xA97 JUMP JUMPDEST PUSH2 0x468 JUMP JUMPDEST PUSH2 0x164 PUSH2 0x1AA CALLDATASIZE PUSH1 0x4 PUSH2 0xA97 JUMP JUMPDEST PUSH2 0x5F9 JUMP JUMPDEST CALLVALUE DUP1 ISZERO PUSH2 0x1BB JUMPI PUSH1 0x0 DUP1 REVERT JUMPDEST POP PUSH2 0x139 PUSH2 0x1CA CALLDATASIZE PUSH1 0x4 PUSH2 0xA38 JUMP JUMPDEST PUSH2 0x619 JUMP JUMPDEST CALLVALUE DUP1 ISZERO PUSH2 0x1DB JUMPI PUSH1 0x0 DUP1 REVERT JUMPDEST POP PUSH2 0x17B PUSH2 0x1EA CALLDATASIZE PUSH1 0x4 PUSH2 0xAD3 JUMP JUMPDEST PUSH2 0x624 JUMP JUMPDEST CALLVALUE DUP1 ISZERO PUSH2 0x1FB JUMPI PUSH1 0x0 DUP1 REVERT JUMPDEST POP PUSH2 0x10C PUSH2 0x673 JUMP JUMPDEST CALLVALUE DUP1 ISZERO PUSH2 0x210 JUMPI PUSH1 0x0 DUP1 REVERT JUMPDEST POP PUSH2 0x164 PUSH2 0x21F CALLDATASIZE PUSH1 0x4 PUSH2 0xAEE JUMP JUMPDEST PUSH2 0x682 JUMP JUMPDEST PUSH2 0x164 PUSH2 0x232 CALLDATASIZE PUSH1 0x4 PUSH2 0xB40 JUMP JUMPDEST PUSH2 0x6EE JUMP JUMPDEST CALLVALUE DUP1 ISZERO PUSH2 0x243 JUMPI PUSH1 0x0 DUP1 REVERT JUMPDEST POP PUSH2 0x10C PUSH2 0x252 CALLDATASIZE PUSH1 0x4 PUSH2 0xA38 JUMP JUMPDEST PUSH2 0x738 JUMP JUMPDEST CALLVALUE DUP1 ISZERO PUSH2 0x263 JUMPI PUSH1 0x0 DUP1 REVERT JUMPDEST POP PUSH2 0xE2 PUSH2 0x272 CALLDATASIZE PUSH1 0x4 PUSH2 0xC1C JUMP JUMPDEST PUSH1 0x1 PUSH1 0x1 PUSH1 0xA0 SHL SUB SWAP2 DUP3 AND PUSH1 0x0 SWAP1 DUP2 MSTORE PUSH1 0x7 PUSH1 0x20 SWAP1 DUP2 MSTORE PUSH1 0x40 DUP1 DUP4 KECCAK256 SWAP4 SWAP1 SWAP5 AND DUP3 MSTORE SWAP2 SWAP1 SWAP2 MSTORE KECCAK256 SLOAD PUSH1 0xFF AND SWAP1 JUMP JUMPDEST PUSH1 0x0 PUSH4 0x1FFC9A7 PUSH1 0xE0 SHL PUSH1 0x1 PUSH1 0x1 PUSH1 0xE0 SHL SUB NOT DUP4 AND EQ DUP1 PUSH2 0x2D1 JUMPI POP PUSH4 0x80AC58CD PUSH1 0xE0 SHL PUSH1 0x1 PUSH1 0x1 PUSH1 0xE0 SHL SUB NOT DUP4 AND EQ JUMPDEST DUP1 PUSH2 0x2EC JUMPI POP PUSH4 0x5B5E139F PUSH1 0xE0 SHL PUSH1 0x1 PUSH1 0x1 PUSH1 0xE0 SHL SUB NOT DUP4 AND EQ JUMPDEST SWAP3 SWAP2 POP POP JUMP JUMPDEST PUSH1 0x60 PUSH1 0x2 DUP1 SLOAD PUSH2 0x301 SWAP1 PUSH2 0xC4F JUMP JUMPDEST DUP1 PUSH1 0x1F ADD PUSH1 0x20 DUP1 SWAP2 DIV MUL PUSH1 0x20 ADD PUSH1 0x40 MLOAD SWAP1 DUP2 ADD PUSH1 0x40 MSTORE DUP1 SWAP3 SWAP2 SWAP1 DUP2 DUP2 MSTORE PUSH1 0x20 ADD DUP3 DUP1 SLOAD PUSH2 0x32D SWAP1 PUSH2 0xC4F JUMP JUMPDEST DUP1 ISZERO PUSH2 0x37A JUMPI DUP1 PUSH1 0x1F LT PUSH2 0x34F JUMPI PUSH2 0x100 DUP1 DUP4 SLOAD DIV MUL DUP4 MSTORE SWAP2 PUSH1 0x20 ADD SWAP2 PUSH2 0x37A JUMP JUMPDEST DUP3 ADD SWAP2 SWAP1 PUSH1 0x0 MSTORE PUSH1 0x20 PUSH1 0x0 KECCAK256 SWAP1 JUMPDEST DUP2 SLOAD DUP2 MSTORE SWAP1 PUSH1 0x1 ADD SWAP1 PUSH1 0x20 ADD DUP1 DUP4 GT PUSH2 0x35D JUMPI DUP3 SWAP1 SUB PUSH1 0x1F AND DUP3 ADD SWAP2 JUMPDEST POP POP POP POP POP SWAP1 POP SWAP1 JUMP JUMPDEST PUSH1 0x0 PUSH2 0x38F DUP3 PUSH2 0x7CA JUMP JUMPDEST PUSH2 0x3AC JUMPI PUSH1 0x40 MLOAD PUSH4 0x33D1C039 PUSH1 0xE2 SHL DUP2 MSTORE PUSH1 0x4 ADD PUSH1 0x40 MLOAD DUP1 SWAP2 SUB SWAP1 REVERT JUMPDEST POP PUSH1 0x0 SWAP1 DUP2 MSTORE PUSH1 0x6 PUSH1 0x20 MSTORE PUSH1 0x40 SWAP1 KECCAK256 SLOAD PUSH1 0x1 PUSH1 0x1 PUSH1 0xA0 SHL SUB AND SWAP1 JUMP JUMPDEST PUSH1 0x0 PUSH2 0x3D3 DUP3 PUSH2 0x619 JUMP JUMPDEST SWAP1 POP CALLER PUSH1 0x1 PUSH1 0x1 PUSH1 0xA0 SHL SUB DUP3 AND EQ PUSH2 0x40C JUMPI PUSH2 0x3EF DUP2 CALLER PUSH2 0x272 JUMP JUMPDEST PUSH2 0x40C JUMPI PUSH1 0x40 MLOAD PUSH4 0x67D9DCA1 PUSH1 0xE1 SHL DUP2 MSTORE PUSH1 0x4 ADD PUSH1 0x40 MLOAD DUP1 SWAP2 SUB SWAP1 REVERT JUMPDEST PUSH1 0x0 DUP3 DUP2 MSTORE PUSH1 0x6 PUSH1 0x20 MSTORE PUSH1 0x40 DUP1 DUP3 KECCAK256 DUP1 SLOAD PUSH1 0x1 PUSH1 0x1 PUSH1 0xA0 SHL SUB NOT AND PUSH1 0x1 PUSH1 0x1 PUSH1 0xA0 SHL SUB DUP8 DUP2 AND SWAP2 DUP3 OR SWAP1 SWAP3 SSTORE SWAP2 MLOAD DUP6 SWAP4 SWAP2 DUP6 AND SWAP2 PUSH32 0x8C5BE1E5EBEC7D5BD14F71427D1E84F3DD0314C0F7B2291E5B200AC8C7C3B925 SWAP2 LOG4 POP POP POP JUMP JUMPDEST PUSH1 0x0 PUSH2 0x473 DUP3 PUSH2 0x7F1 JUMP JUMPDEST SWAP1 POP DUP4 PUSH1 0x1 PUSH1 0x1 PUSH1 0xA0 SHL SUB AND DUP2 PUSH1 0x1 PUSH1 0x1 PUSH1 0xA0 SHL SUB AND EQ PUSH2 0x4A6 JUMPI PUSH1 0x40 MLOAD PUSH3 0xA11481 PUSH1 0xE8 SHL DUP2 MSTORE PUSH1 0x4 ADD PUSH1 0x40 MLOAD DUP1 SWAP2 SUB SWAP1 REVERT JUMPDEST PUSH1 0x0 DUP3 DUP2 MSTORE PUSH1 0x6 PUSH1 0x20 MSTORE PUSH1 0x40 SWAP1 KECCAK256 DUP1 SLOAD CALLER DUP1 DUP3 EQ PUSH1 0x1 PUSH1 0x1 PUSH1 0xA0 SHL SUB DUP9 AND SWAP1 SWAP2 EQ OR PUSH2 0x4F3 JUMPI PUSH2 0x4D6 DUP7 CALLER PUSH2 0x272 JUMP JUMPDEST PUSH2 0x4F3 JUMPI PUSH1 0x40 MLOAD PUSH4 0x2CE44B5F PUSH1 0xE1 SHL DUP2 MSTORE PUSH1 0x4 ADD PUSH1 0x40 MLOAD DUP1 SWAP2 SUB SWAP1 REVERT JUMPDEST PUSH1 0x1 PUSH1 0x1 PUSH1 0xA0 SHL SUB DUP6 AND PUSH2 0x51A JUMPI PUSH1 0x40 MLOAD PUSH4 0x3A954ECD PUSH1 0xE2 SHL DUP2 MSTORE PUSH1 0x4 ADD PUSH1 0x40 MLOAD DUP1 SWAP2 SUB SWAP1 REVERT JUMPDEST DUP1 ISZERO PUSH2 0x525 JUMPI PUSH1 0x0 DUP3 SSTORE JUMPDEST PUSH1 0x1 PUSH1 0x1 PUSH1 0xA0 SHL SUB DUP7 DUP2 AND PUSH1 0x0 SWAP1 DUP2 MSTORE PUSH1 0x5 PUSH1 0x20 MSTORE PUSH1 0x40 DUP1 DUP3 KECCAK256 DUP1 SLOAD PUSH1 0x0 NOT ADD SWAP1 SSTORE SWAP2 DUP8 AND DUP1 DUP3 MSTORE SWAP2 SWAP1 KECCAK256 DUP1 SLOAD PUSH1 0x1 ADD SWAP1 SSTORE TIMESTAMP PUSH1 0xA0 SHL OR PUSH1 0x1 PUSH1 0xE1 SHL OR PUSH1 0x0 DUP6 DUP2 MSTORE PUSH1 0x4 PUSH1 0x20 MSTORE PUSH1 0x40 SWAP1 KECCAK256 SSTORE PUSH1 0x1 PUSH1 0xE1 SHL DUP4 AND PUSH2 0x5B0 JUMPI PUSH1 0x1 DUP5 ADD PUSH1 0x0 DUP2 DUP2 MSTORE PUSH1 0x4 PUSH1 0x20 MSTORE PUSH1 0x40 SWAP1 KECCAK256 SLOAD PUSH2 0x5AE JUMPI PUSH1 0x0 SLOAD DUP2 EQ PUSH2 0x5AE JUMPI PUSH1 0x0 DUP2 DUP2 MSTORE PUSH1 0x4 PUSH1 0x20 MSTORE PUSH1 0x40 SWAP1 KECCAK256 DUP5 SWAP1 SSTORE JUMPDEST POP JUMPDEST DUP4 DUP6 PUSH1 0x1 PUSH1 0x1 PUSH1 0xA0 SHL SUB AND DUP8 PUSH1 0x1 PUSH1 0x1 PUSH1 0xA0 SHL SUB AND PUSH32 0xDDF252AD1BE2C89B69C2B068FC378DAA952BA7F163C4A11628F55A4DF523B3EF PUSH1 0x40 MLOAD PUSH1 0x40 MLOAD DUP1 SWAP2 SUB SWAP1 LOG4 POP POP POP POP POP POP JUMP JUMPDEST PUSH2 0x614 DUP4 DUP4 DUP4 PUSH1 0x40 MLOAD DUP1 PUSH1 0x20 ADD PUSH1 0x40 MSTORE DUP1 PUSH1 0x0 DUP2 MSTORE POP PUSH2 0x6EE JUMP JUMPDEST POP POP POP JUMP JUMPDEST PUSH1 0x0 PUSH2 0x2EC DUP3 PUSH2 0x7F1 JUMP JUMPDEST PUSH1 0x0 PUSH1 0x1 PUSH1 0x1 PUSH1 0xA0 SHL SUB DUP3 AND PUSH2 0x64D JUMPI PUSH1 0x40 MLOAD PUSH4 0x23D3AD81 PUSH1 0xE2 SHL DUP2 MSTORE PUSH1 0x4 ADD PUSH1 0x40 MLOAD DUP1 SWAP2 SUB SWAP1 REVERT JUMPDEST POP PUSH1 0x1 PUSH1 0x1 PUSH1 0xA0 SHL SUB AND PUSH1 0x0 SWAP1 DUP2 MSTORE PUSH1 0x5 PUSH1 0x20 MSTORE PUSH1 0x40 SWAP1 KECCAK256 SLOAD PUSH8 0xFFFFFFFFFFFFFFFF AND SWAP1 JUMP JUMPDEST PUSH1 0x60 PUSH1 0x3 DUP1 SLOAD PUSH2 0x301 SWAP1 PUSH2 0xC4F JUMP JUMPDEST CALLER PUSH1 0x0 DUP2 DUP2 MSTORE PUSH1 0x7 PUSH1 0x20 SWAP1 DUP2 MSTORE PUSH1 0x40 DUP1 DUP4 KECCAK256 PUSH1 0x1 PUSH1 0x1 PUSH1 0xA0 SHL SUB DUP8 AND DUP1 DUP6 MSTORE SWAP1 DUP4 MSTORE SWAP3 DUP2 SWAP1 KECCAK256 DUP1 SLOAD PUSH1 0xFF NOT AND DUP7 ISZERO ISZERO SWAP1 DUP2 OR SWAP1 SWAP2 SSTORE SWAP1 MLOAD SWAP1 DUP2 MSTORE SWAP2 SWAP3 SWAP2 PUSH32 0x17307EAB39AB6107E8899845AD3D59BD9653F200F220920489CA2B5937696C31 SWAP2 ADD PUSH1 0x40 MLOAD DUP1 SWAP2 SUB SWAP1 LOG3 POP POP JUMP JUMPDEST PUSH2 0x6F9 DUP5 DUP5 DUP5 PUSH2 0x468 JUMP JUMPDEST PUSH1 0x1 PUSH1 0x1 PUSH1 0xA0 SHL SUB DUP4 AND EXTCODESIZE ISZERO PUSH2 0x732 JUMPI PUSH2 0x715 DUP5 DUP5 DUP5 DUP5 PUSH2 0x852 JUMP JUMPDEST PUSH2 0x732 JUMPI PUSH1 0x40 MLOAD PUSH4 0x68D2BF6B PUSH1 0xE1 SHL DUP2 MSTORE PUSH1 0x4 ADD PUSH1 0x40 MLOAD DUP1 SWAP2 SUB SWAP1 REVERT JUMPDEST POP POP POP POP JUMP JUMPDEST PUSH1 0x60 PUSH2 0x743 DUP3 PUSH2 0x7CA JUMP JUMPDEST PUSH2 0x760 JUMPI PUSH1 0x40 MLOAD PUSH4 0xA14C4B5 PUSH1 0xE4 SHL DUP2 MSTORE PUSH1 0x4 ADD PUSH1 0x40 MLOAD DUP1 SWAP2 SUB SWAP1 REVERT JUMPDEST PUSH1 0x0 PUSH2 0x777 PUSH1 0x40 DUP1 MLOAD PUSH1 0x20 DUP2 ADD SWAP1 SWAP2 MSTORE PUSH1 0x0 DUP2 MSTORE SWAP1 JUMP JUMPDEST SWAP1 POP DUP1 MLOAD PUSH1 0x0 EQ ISZERO PUSH2 0x798 JUMPI PUSH1 0x40 MLOAD DUP1 PUSH1 0x20 ADD PUSH1 0x40 MSTORE DUP1 PUSH1 0x0 DUP2 MSTORE POP PUSH2 0x7C3 JUMP JUMPDEST DUP1 PUSH2 0x7A2 DUP5 PUSH2 0x949 JUMP JUMPDEST PUSH1 0x40 MLOAD PUSH1 0x20 ADD PUSH2 0x7B3 SWAP3 SWAP2 SWAP1 PUSH2 0xC8A JUMP JUMPDEST PUSH1 0x40 MLOAD PUSH1 0x20 DUP2 DUP4 SUB SUB DUP2 MSTORE SWAP1 PUSH1 0x40 MSTORE JUMPDEST SWAP4 SWAP3 POP POP POP JUMP JUMPDEST PUSH1 0x0 DUP1 SLOAD DUP3 LT DUP1 ISZERO PUSH2 0x2EC JUMPI POP POP PUSH1 0x0 SWAP1 DUP2 MSTORE PUSH1 0x4 PUSH1 0x20 MSTORE PUSH1 0x40 SWAP1 KECCAK256 SLOAD PUSH1 0x1 PUSH1 0xE0 SHL AND ISZERO SWAP1 JUMP JUMPDEST PUSH1 0x0 DUP2 PUSH1 0x0 SLOAD DUP2 LT ISZERO PUSH2 0x839 JUMPI PUSH1 0x0 DUP2 DUP2 MSTORE PUSH1 0x4 PUSH1 0x20 MSTORE PUSH1 0x40 SWAP1 KECCAK256 SLOAD PUSH1 0x1 PUSH1 0xE0 SHL DUP2 AND PUSH2 0x837 JUMPI JUMPDEST DUP1 PUSH2 0x7C3 JUMPI POP PUSH1 0x0 NOT ADD PUSH1 0x0 DUP2 DUP2 MSTORE PUSH1 0x4 PUSH1 0x20 MSTORE PUSH1 0x40 SWAP1 KECCAK256 SLOAD PUSH2 0x819 JUMP JUMPDEST POP JUMPDEST PUSH1 0x40 MLOAD PUSH4 0x6F96CDA1 PUSH1 0xE1 SHL DUP2 MSTORE PUSH1 0x4 ADD PUSH1 0x40 MLOAD DUP1 SWAP2 SUB SWAP1 REVERT JUMPDEST PUSH1 0x40 MLOAD PUSH4 0xA85BD01 PUSH1 0xE1 SHL DUP2 MSTORE PUSH1 0x0 SWAP1 PUSH1 0x1 PUSH1 0x1 PUSH1 0xA0 SHL SUB DUP6 AND SWAP1 PUSH4 0x150B7A02 SWAP1 PUSH2 0x887 SWAP1 CALLER SWAP1 DUP10 SWAP1 DUP9 SWAP1 DUP9 SWAP1 PUSH1 0x4 ADD PUSH2 0xCB9 JUMP JUMPDEST PUSH1 0x20 PUSH1 0x40 MLOAD DUP1 DUP4 SUB DUP2 PUSH1 0x0 DUP8 DUP1 EXTCODESIZE ISZERO DUP1 ISZERO PUSH2 0x8A1 JUMPI PUSH1 0x0 DUP1 REVERT JUMPDEST POP GAS CALL SWAP3 POP POP POP DUP1 ISZERO PUSH2 0x8D1 JUMPI POP PUSH1 0x40 DUP1 MLOAD PUSH1 0x1F RETURNDATASIZE SWAP1 DUP2 ADD PUSH1 0x1F NOT AND DUP3 ADD SWAP1 SWAP3 MSTORE PUSH2 0x8CE SWAP2 DUP2 ADD SWAP1 PUSH2 0xCF6 JUMP JUMPDEST PUSH1 0x1 JUMPDEST PUSH2 0x92C JUMPI RETURNDATASIZE DUP1 DUP1 ISZERO PUSH2 0x8FF JUMPI PUSH1 0x40 MLOAD SWAP2 POP PUSH1 0x1F NOT PUSH1 0x3F RETURNDATASIZE ADD AND DUP3 ADD PUSH1 0x40 MSTORE RETURNDATASIZE DUP3 MSTORE RETURNDATASIZE PUSH1 0x0 PUSH1 0x20 DUP5 ADD RETURNDATACOPY PUSH2 0x904 JUMP JUMPDEST PUSH1 0x60 SWAP2 POP JUMPDEST POP DUP1 MLOAD PUSH2 0x924 JUMPI PUSH1 0x40 MLOAD PUSH4 0x68D2BF6B PUSH1 0xE1 SHL DUP2 MSTORE PUSH1 0x4 ADD PUSH1 0x40 MLOAD DUP1 SWAP2 SUB SWAP1 REVERT JUMPDEST DUP1 MLOAD DUP2 PUSH1 0x20 ADD REVERT JUMPDEST PUSH1 0x1 PUSH1 0x1 PUSH1 0xE0 SHL SUB NOT AND PUSH4 0xA85BD01 PUSH1 0xE1 SHL EQ SWAP1 POP SWAP5 SWAP4 POP POP POP POP JUMP JUMPDEST PUSH1 0x60 PUSH1 0xA0 PUSH1 0x40 MLOAD ADD DUP1 PUSH1 0x40 MSTORE PUSH1 0x20 DUP2 SUB SWAP2 POP POP PUSH1 0x0 DUP2 MSTORE DUP1 DUP3 JUMPDEST PUSH1 0x1 DUP4 SUB SWAP3 POP PUSH1 0xA DUP2 MOD PUSH1 0x30 ADD DUP4 MSTORE8 PUSH1 0xA SWAP1 DIV DUP1 PUSH2 0x980 JUMPI PUSH2 0x985 JUMP JUMPDEST PUSH2 0x963 JUMP JUMPDEST POP DUP2 SWAP1 SUB PUSH1 0x1F NOT SWAP1 SWAP2 ADD SWAP1 DUP2 MSTORE SWAP2 SWAP1 POP JUMP JUMPDEST PUSH1 0x1 PUSH1 0x1 PUSH1 0xE0 SHL SUB NOT DUP2 AND DUP2 EQ PUSH2 0x9AD JUMPI PUSH1 0x0 DUP1 REVERT JUMPDEST POP JUMP JUMPDEST PUSH1 0x0 PUSH1 0x20 DUP3 DUP5 SUB SLT ISZERO PUSH2 0x9C2 JUMPI PUSH1 0x0 DUP1 REVERT JUMPDEST DUP2 CALLDATALOAD PUSH2 0x7C3 DUP2 PUSH2 0x997 JUMP JUMPDEST PUSH1 0x0 JUMPDEST DUP4 DUP2 LT ISZERO PUSH2 0x9E8 JUMPI DUP2 DUP2 ADD MLOAD DUP4 DUP3 ADD MSTORE PUSH1 0x20 ADD PUSH2 0x9D0 JUMP JUMPDEST DUP4 DUP2 GT ISZERO PUSH2 0x732 JUMPI POP POP PUSH1 0x0 SWAP2 ADD MSTORE JUMP JUMPDEST PUSH1 0x0 DUP2 MLOAD DUP1 DUP5 MSTORE PUSH2 0xA11 DUP2 PUSH1 0x20 DUP7 ADD PUSH1 0x20 DUP7 ADD PUSH2 0x9CD JUMP JUMPDEST PUSH1 0x1F ADD PUSH1 0x1F NOT AND SWAP3 SWAP1 SWAP3 ADD PUSH1 0x20 ADD SWAP3 SWAP2 POP POP JUMP JUMPDEST PUSH1 0x20 DUP2 MSTORE PUSH1 0x0 PUSH2 0x7C3 PUSH1 0x20 DUP4 ADD DUP5 PUSH2 0x9F9 JUMP JUMPDEST PUSH1 0x0 PUSH1 0x20 DUP3 DUP5 SUB SLT ISZERO PUSH2 0xA4A JUMPI PUSH1 0x0 DUP1 REVERT JUMPDEST POP CALLDATALOAD SWAP2 SWAP1 POP JUMP JUMPDEST DUP1 CALLDATALOAD PUSH1 0x1 PUSH1 0x1 PUSH1 0xA0 SHL SUB DUP2 AND DUP2 EQ PUSH2 0xA68 JUMPI PUSH1 0x0 DUP1 REVERT JUMPDEST SWAP2 SWAP1 POP JUMP JUMPDEST PUSH1 0x0 DUP1 PUSH1 0x40 DUP4 DUP6 SUB SLT ISZERO PUSH2 0xA80 JUMPI PUSH1 0x0 DUP1 REVERT JUMPDEST PUSH2 0xA89 DUP4 PUSH2 0xA51 JUMP JUMPDEST SWAP5 PUSH1 0x20 SWAP4 SWAP1 SWAP4 ADD CALLDATALOAD SWAP4 POP POP POP JUMP JUMPDEST PUSH1 0x0 DUP1 PUSH1 0x0 PUSH1 0x60 DUP5 DUP7 SUB SLT ISZERO PUSH2 0xAAC JUMPI PUSH1 0x0 DUP1 REVERT JUMPDEST PUSH2 0xAB5 DUP5 PUSH2 0xA51 JUMP JUMPDEST SWAP3 POP PUSH2 0xAC3 PUSH1 0x20 DUP6 ADD PUSH2 0xA51 JUMP JUMPDEST SWAP2 POP PUSH1 0x40 DUP5 ADD CALLDATALOAD SWAP1 POP SWAP3 POP SWAP3 POP SWAP3 JUMP JUMPDEST PUSH1 0x0 PUSH1 0x20 DUP3 DUP5 SUB SLT ISZERO PUSH2 0xAE5 JUMPI PUSH1 0x0 DUP1 REVERT JUMPDEST PUSH2 0x7C3 DUP3 PUSH2 0xA51 JUMP JUMPDEST PUSH1 0x0 DUP1 PUSH1 0x40 DUP4 DUP6 SUB SLT ISZERO PUSH2 0xB01 JUMPI PUSH1 0x0 DUP1 REVERT JUMPDEST PUSH2 0xB0A DUP4 PUSH2 0xA51 JUMP JUMPDEST SWAP2 POP PUSH1 0x20 DUP4 ADD CALLDATALOAD DUP1 ISZERO ISZERO DUP2 EQ PUSH2 0xB1F JUMPI PUSH1 0x0 DUP1 REVERT JUMPDEST DUP1 SWAP2 POP POP SWAP3 POP SWAP3 SWAP1 POP JUMP JUMPDEST PUSH4 0x4E487B71 PUSH1 0xE0 SHL PUSH1 0x0 MSTORE PUSH1 0x41 PUSH1 0x4 MSTORE PUSH1 0x24 PUSH1 0x0 REVERT JUMPDEST PUSH1 0x0 DUP1 PUSH1 0x0 DUP1 PUSH1 0x80 DUP6 DUP8 SUB SLT ISZERO PUSH2 0xB56 JUMPI PUSH1 0x0 DUP1 REVERT JUMPDEST PUSH2 0xB5F DUP6 PUSH2 0xA51 JUMP JUMPDEST SWAP4 POP PUSH2 0xB6D PUSH1 0x20 DUP7 ADD PUSH2 0xA51 JUMP JUMPDEST SWAP3 POP PUSH1 0x40 DUP6 ADD CALLDATALOAD SWAP2 POP PUSH1 0x60 DUP6 ADD CALLDATALOAD PUSH8 0xFFFFFFFFFFFFFFFF DUP1 DUP3 GT ISZERO PUSH2 0xB91 JUMPI PUSH1 0x0 DUP1 REVERT JUMPDEST DUP2 DUP8 ADD SWAP2 POP DUP8 PUSH1 0x1F DUP4 ADD SLT PUSH2 0xBA5 JUMPI PUSH1 0x0 DUP1 REVERT JUMPDEST DUP2 CALLDATALOAD DUP2 DUP2 GT ISZERO PUSH2 0xBB7 JUMPI PUSH2 0xBB7 PUSH2 0xB2A JUMP JUMPDEST PUSH1 0x40 MLOAD PUSH1 0x1F DUP3 ADD PUSH1 0x1F NOT SWAP1 DUP2 AND PUSH1 0x3F ADD AND DUP2 ADD SWAP1 DUP4 DUP3 GT DUP2 DUP4 LT OR ISZERO PUSH2 0xBDF JUMPI PUSH2 0xBDF PUSH2 0xB2A JUMP JUMPDEST DUP2 PUSH1 0x40 MSTORE DUP3 DUP2 MSTORE DUP11 PUSH1 0x20 DUP5 DUP8 ADD ADD GT ISZERO PUSH2 0xBF8 JUMPI PUSH1 0x0 DUP1 REVERT JUMPDEST DUP3 PUSH1 0x20 DUP7 ADD PUSH1 0x20 DUP4 ADD CALLDATACOPY PUSH1 0x0 PUSH1 0x20 DUP5 DUP4 ADD ADD MSTORE DUP1 SWAP6 POP POP POP POP POP POP SWAP3 SWAP6 SWAP2 SWAP5 POP SWAP3 POP JUMP JUMPDEST PUSH1 0x0 DUP1 PUSH1 0x40 DUP4 DUP6 SUB SLT ISZERO PUSH2 0xC2F JUMPI PUSH1 0x0 DUP1 REVERT JUMPDEST PUSH2 0xC38 DUP4 PUSH2 0xA51 JUMP JUMPDEST SWAP2 POP PUSH2 0xC46 PUSH1 0x20 DUP5 ADD PUSH2 0xA51 JUMP JUMPDEST SWAP1 POP SWAP3 POP SWAP3 SWAP1 POP JUMP JUMPDEST PUSH1 0x1 DUP2 DUP2 SHR SWAP1 DUP3 AND DUP1 PUSH2 0xC63 JUMPI PUSH1 0x7F DUP3 AND SWAP2 POP JUMPDEST PUSH1 0x20 DUP3 LT DUP2 EQ ISZERO PUSH2 0xC84 JUMPI PUSH4 0x4E487B71 PUSH1 0xE0 SHL PUSH1 0x0 MSTORE PUSH1 0x22 PUSH1 0x4 MSTORE PUSH1 0x24 PUSH1 0x0 REVERT JUMPDEST POP SWAP2 SWAP1 POP JUMP JUMPDEST PUSH1 0x0 DUP4 MLOAD PUSH2 0xC9C DUP2 DUP5 PUSH1 0x20 DUP9 ADD PUSH2 0x9CD JUMP JUMPDEST DUP4 MLOAD SWAP1 DUP4 ADD SWAP1 PUSH2 0xCB0 DUP2 DUP4 PUSH1 0x20 DUP9 ADD PUSH2 0x9CD JUMP JUMPDEST ADD SWAP5 SWAP4 POP POP POP POP JUMP JUMPDEST PUSH1 0x1 PUSH1 0x1 PUSH1 0xA0 SHL SUB DUP6 DUP2 AND DUP3 MSTORE DUP5 AND PUSH1 0x20 DUP3 ADD MSTORE PUSH1 0x40 DUP2 ADD DUP4 SWAP1 MSTORE PUSH1 0x80 PUSH1 0x60 DUP3 ADD DUP2 SWAP1 MSTORE PUSH1 0x0 SWAP1 PUSH2 0xCEC SWAP1 DUP4 ADD DUP5 PUSH2 0x9F9 JUMP JUMPDEST SWAP7 SWAP6 POP POP POP POP POP POP JUMP JUMPDEST PUSH1 0x0 PUSH1 0x20 DUP3 DUP5 SUB SLT ISZERO PUSH2 0xD08 JUMPI PUSH1 0x0 DUP1 REVERT JUMPDEST DUP2 MLOAD PUSH2 0x7C3 DUP2 PUSH2 0x997 JUMP INVALID LOG2 PUSH5 0x6970667358 0x22 SLT KECCAK256 0x49 BASEFEE AND ADD KECCAK256 PUSH30 0xEFB4066563B038052A4FB15BBED45670CA9474D661D6CF3821F064736F6C PUSH4 0x43000809 STOP CALLER "},"methodIdentifiers":{"approve(address,uint256)":"095ea7b3","balanceOf(address)":"70a08231","getApproved(uint256)":"081812fc","isApprovedForAll(address,address)":"e985e9c5","name()":"06fdde03","ownerOf(uint256)":"6352211e","safeTransferFrom(address,address,uint256)":"42842e0e","safeTransferFrom(address,address,uint256,bytes)":"b88d4fde","setApprovalForAll(address,bool)":"a22cb465","supportsInterface(bytes4)":"01ffc9a7","symbol()":"95d89b41","tokenURI(uint256)":"c87b56dd","totalSupply()":"18160ddd","transferFrom(address,address,uint256)":"23b872dd"}}}}}