{"contracts/NEWELF.sol":{"NEWELF":{"abi":[{"inputs":[{"internalType":"string","name":"uri","type":"string"}],"stateMutability":"nonpayable","type":"constructor"},{"anonymous":false,"inputs":[{"indexed":true,"internalType":"address","name":"previousOwner","type":"address"},{"indexed":true,"internalType":"address","name":"newOwner","type":"address"}],"name":"OwnershipTransferred","type":"event"},{"anonymous":false,"inputs":[{"indexed":true,"internalType":"address","name":"from","type":"address"},{"indexed":true,"internalType":"address","name":"to","type":"address"},{"indexed":true,"internalType":"uint256","name":"tokenId","type":"uint256"}],"name":"Transfer","type":"event"},{"inputs":[],"name":"NANOHUB","outputs":[{"internalType":"address","name":"","type":"address"}],"stateMutability":"view","type":"function"},{"inputs":[{"internalType":"address","name":"owner","type":"address"}],"name":"balanceOf","outputs":[{"internalType":"uint256","name":"","type":"uint256"}],"stateMutability":"view","type":"function"},{"inputs":[],"name":"baseExtension","outputs":[{"internalType":"string","name":"","type":"string"}],"stateMutability":"view","type":"function"},{"inputs":[],"name":"baseURI","outputs":[{"internalType":"string","name":"","type":"string"}],"stateMutability":"view","type":"function"},{"inputs":[{"internalType":"uint256","name":"tokenId","type":"uint256"}],"name":"exist","outputs":[{"internalType":"bool","name":"","type":"bool"}],"stateMutability":"view","type":"function"},{"inputs":[{"internalType":"address","name":"to","type":"address"},{"internalType":"uint256","name":"tokenId","type":"uint256"}],"name":"mintNEWELF","outputs":[],"stateMutability":"nonpayable","type":"function"},{"inputs":[],"name":"name","outputs":[{"internalType":"string","name":"","type":"string"}],"stateMutability":"view","type":"function"},{"inputs":[],"name":"owner","outputs":[{"internalType":"address","name":"","type":"address"}],"stateMutability":"view","type":"function"},{"inputs":[{"internalType":"uint256","name":"id","type":"uint256"}],"name":"ownerOf","outputs":[{"internalType":"address","name":"","type":"address"}],"stateMutability":"view","type":"function"},{"inputs":[],"name":"renounceOwnership","outputs":[],"stateMutability":"nonpayable","type":"function"},{"inputs":[{"internalType":"string","name":"_newBaseExtension","type":"string"}],"name":"setBaseExtension","outputs":[],"stateMutability":"nonpayable","type":"function"},{"inputs":[{"internalType":"string","name":"_tokenBaseURI","type":"string"}],"name":"setBaseURI","outputs":[],"stateMutability":"nonpayable","type":"function"},{"inputs":[{"internalType":"address","name":"_NANOHUB","type":"address"}],"name":"setNANOHUB","outputs":[],"stateMutability":"nonpayable","type":"function"},{"inputs":[{"internalType":"bytes4","name":"interfaceId","type":"bytes4"}],"name":"supportsInterface","outputs":[{"internalType":"bool","name":"","type":"bool"}],"stateMutability":"pure","type":"function"},{"inputs":[],"name":"symbol","outputs":[{"internalType":"string","name":"","type":"string"}],"stateMutability":"view","type":"function"},{"inputs":[{"internalType":"uint256","name":"index","type":"uint256"}],"name":"tokenByIndex","outputs":[{"internalType":"uint256","name":"","type":"uint256"}],"stateMutability":"view","type":"function"},{"inputs":[{"internalType":"address","name":"owner","type":"address"},{"internalType":"uint256","name":"index","type":"uint256"}],"name":"tokenOfOwnerByIndex","outputs":[{"internalType":"uint256","name":"","type":"uint256"}],"stateMutability":"view","type":"function"},{"inputs":[{"internalType":"uint256","name":"id","type":"uint256"}],"name":"tokenURI","outputs":[{"internalType":"string","name":"","type":"string"}],"stateMutability":"view","type":"function"},{"inputs":[],"name":"totalSupply","outputs":[{"internalType":"uint256","name":"","type":"uint256"}],"stateMutability":"view","type":"function"},{"inputs":[{"internalType":"address","name":"from","type":"address"},{"internalType":"address","name":"to","type":"address"},{"internalType":"uint256","name":"tokenId","type":"uint256"}],"name":"transferFrom","outputs":[],"stateMutability":"nonpayable","type":"function"},{"inputs":[{"internalType":"address","name":"newOwner","type":"address"}],"name":"transferOwnership","outputs":[],"stateMutability":"nonpayable","type":"function"}],"evm":{"bytecode":{"linkReferences":{},"object":"60c0604052600360808190526222a62360e91b60a090815262000024919081620001b4565b506040805180820190915260068082526522a62327a7ad60d11b60209092019182526200005491600491620001b4565b5060408051808201909152600580825264173539b7b760d91b60209092019182526200008391600691620001b4565b50600060075561012f600e553480156200009c57600080fd5b506040516200194338038062001943833981016040819052620000bf9162000270565b620000ca33620000e0565b60018055620000d98162000130565b5062000389565b600080546001600160a01b038381166001600160a01b0319831681178455604051919092169283917f8be0079c531659141344cd1fd0a4f28419497f9722a3daafe3b4186f6b6457e09190a35050565b6200013a62000153565b80516200014f906005906020840190620001b4565b5050565b6000546001600160a01b03163314620001b25760405162461bcd60e51b815260206004820181905260248201527f4f776e61626c653a2063616c6c6572206973206e6f7420746865206f776e6572604482015260640160405180910390fd5b565b828054620001c2906200034c565b90600052602060002090601f016020900481019282620001e6576000855562000231565b82601f106200020157805160ff191683800117855562000231565b8280016001018555821562000231579182015b828111156200023157825182559160200191906001019062000214565b506200023f92915062000243565b5090565b5b808211156200023f576000815560010162000244565b634e487b7160e01b600052604160045260246000fd5b600060208083850312156200028457600080fd5b82516001600160401b03808211156200029c57600080fd5b818501915085601f830112620002b157600080fd5b815181811115620002c657620002c66200025a565b604051601f8201601f19908116603f01168101908382118183101715620002f157620002f16200025a565b8160405282815288868487010111156200030a57600080fd5b600093505b828410156200032e57848401860151818501870152928501926200030f565b82841115620003405760008684830101525b98975050505050505050565b600181811c908216806200036157607f821691505b602082108114156200038357634e487b7160e01b600052602260045260246000fd5b50919050565b6115aa80620003996000396000f3fe608060405234801561001057600080fd5b50600436106101375760003560e01c80636352211e116100b857806395d89b411161007c57806395d89b4114610276578063b46180221461027e578063c668286214610291578063c87b56dd14610299578063da3ef23f146102ac578063f2fde38b146102bf57600080fd5b80636352211e1461022f5780636c0360eb1461024257806370a082311461024a578063715018a61461025d5780638da5cb5b1461026557600080fd5b80634add9fb5116100ff5780634add9fb5146101b85780634ebbc92a146101e35780634f6ccce7146101f657806355f804b3146102095780635c5db5f51461021c57600080fd5b806301ffc9a71461013c57806306fdde031461016457806318160ddd1461017957806323b872dd146101905780632f745c59146101a5575b600080fd5b61014f61014a366004611070565b6102d2565b60405190151581526020015b60405180910390f35b61016c610309565b60405161015b91906110e9565b61018260075481565b60405190815260200161015b565b6101a361019e366004611118565b610397565b005b6101826101b3366004611154565b6103da565b6002546101cb906001600160a01b031681565b6040516001600160a01b03909116815260200161015b565b61014f6101f136600461117e565b61044e565b61018261020436600461117e565b61046b565b6101a36102173660046111ad565b6104d7565b6101a361022a366004611154565b6104f6565b6101cb61023d36600461117e565b61052a565b61016c61056d565b61018261025836600461125e565b61057a565b6101a36105be565b6000546001600160a01b03166101cb565b61016c6105d2565b6101a361028c36600461125e565b6105df565b61016c610609565b61016c6102a736600461117e565b610616565b6101a36102ba3660046111ad565b61069c565b6101a36102cd36600461125e565b6106b7565b60006380ac58cd60e01b6001600160e01b0319831614806103035750635b5e139f60e01b6001600160e01b03198316145b92915050565b6004805461031690611279565b80601f016020809104026020016040519081016040528092919081815260200182805461034290611279565b801561038f5780601f106103645761010080835404028352916020019161038f565b820191906000526020600020905b81548152906001019060200180831161037257829003601f168201915b505050505081565b6002546001600160a01b031633146103ca5760405162461bcd60e51b81526004016103c1906112b4565b60405180910390fd5b6103d5838383610730565b505050565b60006103e58361057a565b82106104255760405162461bcd60e51b815260206004820152600f60248201526e32b93937b9103130b630b731b2a7b360891b60448201526064016103c1565b506001600160a01b03919091166000908152600d60209081526040808320938352929052205490565b6000908152600860205260409020546001600160a01b0316151590565b600060075482106104b25760405162461bcd60e51b81526020600482015260116024820152706572726f7220746f74616c537570706c7960781b60448201526064016103c1565b600a82815481106104c5576104c56112db565b90600052602060002001549050919050565b6104df610913565b80516104f2906005906020840190610fc1565b5050565b6002546001600160a01b031633146105205760405162461bcd60e51b81526004016103c1906112b4565b6104f2828261096d565b60006105358261044e565b6105515760405162461bcd60e51b81526004016103c1906112f1565b506000908152600860205260409020546001600160a01b031690565b6005805461031690611279565b60006001600160a01b0382166105a25760405162461bcd60e51b81526004016103c190611316565b506001600160a01b031660009081526009602052604090205490565b6105c6610913565b6105d06000610aff565b565b6003805461031690611279565b6105e7610913565b600280546001600160a01b0319166001600160a01b0392909216919091179055565b6006805461031690611279565b60606106218261044e565b61063d5760405162461bcd60e51b81526004016103c1906112f1565b6000610647610b4f565b905060008151116106675760405180602001604052806000815250610695565b8061067184610be1565b60066040516020016106859392919061133b565b6040516020818303038152906040525b9392505050565b6106a4610913565b80516104f2906006906020840190610fc1565b6106bf610913565b6001600160a01b0381166107245760405162461bcd60e51b815260206004820152602660248201527f4f776e61626c653a206e6577206f776e657220697320746865207a65726f206160448201526564647265737360d01b60648201526084016103c1565b61072d81610aff565b50565b6107398161044e565b6107555760405162461bcd60e51b81526004016103c1906112f1565b6001600160a01b03821661077b5760405162461bcd60e51b81526004016103c1906113ff565b6107848161052a565b6001600160a01b0316836001600160a01b0316146107b45760405162461bcd60e51b81526004016103c190611316565b6001600160a01b0383166107d0576107cb81610ce7565b6107f3565b816001600160a01b0316836001600160a01b0316146107f3576107f38382610d2b565b6001600160a01b03821661080f5761080a81610dc8565b610832565b826001600160a01b0316826001600160a01b031614610832576108328282610e77565b6001600160a01b038316600090815260096020526040812080549161085683611437565b90915550506001600160a01b038216600090815260096020526040812080549161087f8361144e565b909155505060008181526008602052604080822080546001600160a01b0319166001600160a01b0386811691821790925591518493918716917fddf252ad1be2c89b69c2b068fc378daa952ba7f163c4a11628f55a4df523b3ef91a46108f76000838360405180602001604052806000815250610ebb565b6103d55760405162461bcd60e51b81526004016103c190611469565b6000546001600160a01b031633146105d05760405162461bcd60e51b815260206004820181905260248201527f4f776e61626c653a2063616c6c6572206973206e6f7420746865206f776e657260448201526064016103c1565b60006001600160a01b0383166109955760405162461bcd60e51b81526004016103c1906113ff565b6000828152600860205260409020546001600160a01b0316156109ca5760405162461bcd60e51b81526004016103c190611316565b6001600160a01b0381166109e6576109e182610ce7565b610a09565b826001600160a01b0316816001600160a01b031614610a0957610a098183610d2b565b6001600160a01b038316610a2557610a2082610dc8565b610a48565b806001600160a01b0316836001600160a01b031614610a4857610a488383610e77565b6001600160a01b0383166000908152600960205260408120805491610a6c8361144e565b9091555050600082815260086020526040812080546001600160a01b0319166001600160a01b0386161790556007805491610aa68361144e565b909155505060405182906001600160a01b038516906000907fddf252ad1be2c89b69c2b068fc378daa952ba7f163c4a11628f55a4df523b3ef908290a46108f76000848460405180602001604052806000815250610ebb565b600080546001600160a01b038381166001600160a01b0319831681178455604051919092169283917f8be0079c531659141344cd1fd0a4f28419497f9722a3daafe3b4186f6b6457e09190a35050565b606060058054610b5e90611279565b80601f0160208091040260200160405190810160405280929190818152602001828054610b8a90611279565b8015610bd75780601f10610bac57610100808354040283529160200191610bd7565b820191906000526020600020905b815481529060010190602001808311610bba57829003601f168201915b5050505050905090565b606081610c055750506040805180820190915260018152600360fc1b602082015290565b6000825b8015610c2f5781610c198161144e565b9250610c289050600a826114ad565b9050610c09565b60008267ffffffffffffffff811115610c4a57610c4a611197565b6040519080825280601f01601f191660200182016040528015610c74576020820181803683370190505b5090505b8415610cdf57610c896001846114c1565b9250610c96600a866114d8565b610ca19060306114ec565b60f81b818481518110610cb657610cb66112db565b60200101906001600160f81b031916908160001a905350610cd8600a866114ad565b9450610c78565b949350505050565b600a80546000838152600b60205260408120829055600182018355919091527fc65a7bb8d6351c1cf70c95a316cc6a92839c986682d98bc35f958f4883f9d2a80155565b60006001610d388461057a565b610d4291906114c1565b6000838152600c6020526040902054909150808214610d95576001600160a01b0384166000908152600d602090815260408083208584528252808320548484528184208190558352600c90915290208190555b506000918252600c602090815260408084208490556001600160a01b039094168352600d81528383209183525290812055565b600a54600090610dda906001906114c1565b6000838152600b6020526040812054600a8054939450909284908110610e0257610e026112db565b9060005260206000200154905080600a8381548110610e2357610e236112db565b6000918252602080832090910192909255828152600b9091526040808220849055858252812055600a805480610e5b57610e5b611504565b6001900381819060005260206000200160009055905550505050565b6000610e828361057a565b6001600160a01b039093166000908152600d602090815260408083208684528252808320859055938252600c9052919091209190915550565b6000833b8015610fb757604051630a85bd0160e11b81526001600160a01b0386169063150b7a0290610ef79033908a908990899060040161151a565b602060405180830381600087803b158015610f1157600080fd5b505af1925050508015610f41575060408051601f3d908101601f19168201909252610f3e91810190611557565b60015b610f9b573d808015610f6f576040519150601f19603f3d011682016040523d82523d6000602084013e610f74565b606091505b508051610f935760405162461bcd60e51b81526004016103c190611469565b805181602001fd5b6001600160e01b031916630a85bd0160e11b149150610cdf9050565b6001915050610cdf565b828054610fcd90611279565b90600052602060002090601f016020900481019282610fef5760008555611035565b82601f1061100857805160ff1916838001178555611035565b82800160010185558215611035579182015b8281111561103557825182559160200191906001019061101a565b50611041929150611045565b5090565b5b808211156110415760008155600101611046565b6001600160e01b03198116811461072d57600080fd5b60006020828403121561108257600080fd5b81356106958161105a565b60005b838110156110a8578181015183820152602001611090565b838111156110b7576000848401525b50505050565b600081518084526110d581602086016020860161108d565b601f01601f19169290920160200192915050565b60208152600061069560208301846110bd565b80356001600160a01b038116811461111357600080fd5b919050565b60008060006060848603121561112d57600080fd5b611136846110fc565b9250611144602085016110fc565b9150604084013590509250925092565b6000806040838503121561116757600080fd5b611170836110fc565b946020939093013593505050565b60006020828403121561119057600080fd5b5035919050565b634e487b7160e01b600052604160045260246000fd5b6000602082840312156111bf57600080fd5b813567ffffffffffffffff808211156111d757600080fd5b818401915084601f8301126111eb57600080fd5b8135818111156111fd576111fd611197565b604051601f8201601f19908116603f0116810190838211818310171561122557611225611197565b8160405282815287602084870101111561123e57600080fd5b826020860160208301376000928101602001929092525095945050505050565b60006020828403121561127057600080fd5b610695826110fc565b600181811c9082168061128d57607f821691505b602082108114156112ae57634e487b7160e01b600052602260045260246000fd5b50919050565b6020808252600d908201526c32b93937b9102720a727a42aa160991b604082015260600190565b634e487b7160e01b600052603260045260246000fd5b6020808252600b908201526a195c9c9bdc88195e1a5cdd60aa1b604082015260600190565b6020808252600b908201526a32b93937b91037bbb732b960a91b604082015260600190565b60008451602061134e8285838a0161108d565b8551918401916113618184848a0161108d565b8554920191600090600181811c908083168061137e57607f831692505b85831081141561139c57634e487b7160e01b85526022600452602485fd5b8080156113b057600181146113c1576113ee565b60ff198516885283880195506113ee565b60008b81526020902060005b858110156113e65781548a8201529084019088016113cd565b505083880195505b50939b9a5050505050505050505050565b6020808252600890820152676572726f7220746f60c01b604082015260600190565b634e487b7160e01b600052601160045260246000fd5b60008161144657611446611421565b506000190190565b600060001982141561146257611462611421565b5060010190565b60208082526014908201527332b93937b91022a9219b9918a932b1b2b4bb32b960611b604082015260600190565b634e487b7160e01b600052601260045260246000fd5b6000826114bc576114bc611497565b500490565b6000828210156114d3576114d3611421565b500390565b6000826114e7576114e7611497565b500690565b600082198211156114ff576114ff611421565b500190565b634e487b7160e01b600052603160045260246000fd5b6001600160a01b038581168252841660208201526040810183905260806060820181905260009061154d908301846110bd565b9695505050505050565b60006020828403121561156957600080fd5b81516106958161105a56fea2646970667358221220774136be5893606f2ea8de2fe434057905d3ebdf2ee6903cec56e24887ad147c64736f6c63430008090033","opcodes":"PUSH1 0xC0 PUSH1 0x40 MSTORE PUSH1 0x3 PUSH1 0x80 DUP2 SWAP1 MSTORE PUSH3 0x22A623 PUSH1 0xE9 SHL PUSH1 0xA0 SWAP1 DUP2 MSTORE PUSH3 0x24 SWAP2 SWAP1 DUP2 PUSH3 0x1B4 JUMP JUMPDEST POP PUSH1 0x40 DUP1 MLOAD DUP1 DUP3 ADD SWAP1 SWAP2 MSTORE PUSH1 0x6 DUP1 DUP3 MSTORE PUSH6 0x22A62327A7AD PUSH1 0xD1 SHL PUSH1 0x20 SWAP1 SWAP3 ADD SWAP2 DUP3 MSTORE PUSH3 0x54 SWAP2 PUSH1 0x4 SWAP2 PUSH3 0x1B4 JUMP JUMPDEST POP PUSH1 0x40 DUP1 MLOAD DUP1 DUP3 ADD SWAP1 SWAP2 MSTORE PUSH1 0x5 DUP1 DUP3 MSTORE PUSH5 0x173539B7B7 PUSH1 0xD9 SHL PUSH1 0x20 SWAP1 SWAP3 ADD SWAP2 DUP3 MSTORE PUSH3 0x83 SWAP2 PUSH1 0x6 SWAP2 PUSH3 0x1B4 JUMP JUMPDEST POP PUSH1 0x0 PUSH1 0x7 SSTORE PUSH2 0x12F PUSH1 0xE SSTORE CALLVALUE DUP1 ISZERO PUSH3 0x9C JUMPI PUSH1 0x0 DUP1 REVERT JUMPDEST POP PUSH1 0x40 MLOAD PUSH3 0x1943 CODESIZE SUB DUP1 PUSH3 0x1943 DUP4 CODECOPY DUP2 ADD PUSH1 0x40 DUP2 SWAP1 MSTORE PUSH3 0xBF SWAP2 PUSH3 0x270 JUMP JUMPDEST PUSH3 0xCA CALLER PUSH3 0xE0 JUMP JUMPDEST PUSH1 0x1 DUP1 SSTORE PUSH3 0xD9 DUP2 PUSH3 0x130 JUMP JUMPDEST POP PUSH3 0x389 JUMP JUMPDEST PUSH1 0x0 DUP1 SLOAD PUSH1 0x1 PUSH1 0x1 PUSH1 0xA0 SHL SUB DUP4 DUP2 AND PUSH1 0x1 PUSH1 0x1 PUSH1 0xA0 SHL SUB NOT DUP4 AND DUP2 OR DUP5 SSTORE PUSH1 0x40 MLOAD SWAP2 SWAP1 SWAP3 AND SWAP3 DUP4 SWAP2 PUSH32 0x8BE0079C531659141344CD1FD0A4F28419497F9722A3DAAFE3B4186F6B6457E0 SWAP2 SWAP1 LOG3 POP POP JUMP JUMPDEST PUSH3 0x13A PUSH3 0x153 JUMP JUMPDEST DUP1 MLOAD PUSH3 0x14F SWAP1 PUSH1 0x5 SWAP1 PUSH1 0x20 DUP5 ADD SWAP1 PUSH3 0x1B4 JUMP JUMPDEST POP POP JUMP JUMPDEST PUSH1 0x0 SLOAD PUSH1 0x1 PUSH1 0x1 PUSH1 0xA0 SHL SUB AND CALLER EQ PUSH3 0x1B2 JUMPI PUSH1 0x40 MLOAD PUSH3 0x461BCD PUSH1 0xE5 SHL DUP2 MSTORE PUSH1 0x20 PUSH1 0x4 DUP3 ADD DUP2 SWAP1 MSTORE PUSH1 0x24 DUP3 ADD MSTORE PUSH32 0x4F776E61626C653A2063616C6C6572206973206E6F7420746865206F776E6572 PUSH1 0x44 DUP3 ADD MSTORE PUSH1 0x64 ADD PUSH1 0x40 MLOAD DUP1 SWAP2 SUB SWAP1 REVERT JUMPDEST JUMP JUMPDEST DUP3 DUP1 SLOAD PUSH3 0x1C2 SWAP1 PUSH3 0x34C JUMP JUMPDEST SWAP1 PUSH1 0x0 MSTORE PUSH1 0x20 PUSH1 0x0 KECCAK256 SWAP1 PUSH1 0x1F ADD PUSH1 0x20 SWAP1 DIV DUP2 ADD SWAP3 DUP3 PUSH3 0x1E6 JUMPI PUSH1 0x0 DUP6 SSTORE PUSH3 0x231 JUMP JUMPDEST DUP3 PUSH1 0x1F LT PUSH3 0x201 JUMPI DUP1 MLOAD PUSH1 0xFF NOT AND DUP4 DUP1 ADD OR DUP6 SSTORE PUSH3 0x231 JUMP JUMPDEST DUP3 DUP1 ADD PUSH1 0x1 ADD DUP6 SSTORE DUP3 ISZERO PUSH3 0x231 JUMPI SWAP2 DUP3 ADD JUMPDEST DUP3 DUP2 GT ISZERO PUSH3 0x231 JUMPI DUP3 MLOAD DUP3 SSTORE SWAP2 PUSH1 0x20 ADD SWAP2 SWAP1 PUSH1 0x1 ADD SWAP1 PUSH3 0x214 JUMP JUMPDEST POP PUSH3 0x23F SWAP3 SWAP2 POP PUSH3 0x243 JUMP JUMPDEST POP SWAP1 JUMP JUMPDEST JUMPDEST DUP1 DUP3 GT ISZERO PUSH3 0x23F JUMPI PUSH1 0x0 DUP2 SSTORE PUSH1 0x1 ADD PUSH3 0x244 JUMP JUMPDEST PUSH4 0x4E487B71 PUSH1 0xE0 SHL PUSH1 0x0 MSTORE PUSH1 0x41 PUSH1 0x4 MSTORE PUSH1 0x24 PUSH1 0x0 REVERT JUMPDEST PUSH1 0x0 PUSH1 0x20 DUP1 DUP4 DUP6 SUB SLT ISZERO PUSH3 0x284 JUMPI PUSH1 0x0 DUP1 REVERT JUMPDEST DUP3 MLOAD PUSH1 0x1 PUSH1 0x1 PUSH1 0x40 SHL SUB DUP1 DUP3 GT ISZERO PUSH3 0x29C JUMPI PUSH1 0x0 DUP1 REVERT JUMPDEST DUP2 DUP6 ADD SWAP2 POP DUP6 PUSH1 0x1F DUP4 ADD SLT PUSH3 0x2B1 JUMPI PUSH1 0x0 DUP1 REVERT JUMPDEST DUP2 MLOAD DUP2 DUP2 GT ISZERO PUSH3 0x2C6 JUMPI PUSH3 0x2C6 PUSH3 0x25A JUMP JUMPDEST PUSH1 0x40 MLOAD PUSH1 0x1F DUP3 ADD PUSH1 0x1F NOT SWAP1 DUP2 AND PUSH1 0x3F ADD AND DUP2 ADD SWAP1 DUP4 DUP3 GT DUP2 DUP4 LT OR ISZERO PUSH3 0x2F1 JUMPI PUSH3 0x2F1 PUSH3 0x25A JUMP JUMPDEST DUP2 PUSH1 0x40 MSTORE DUP3 DUP2 MSTORE DUP9 DUP7 DUP5 DUP8 ADD ADD GT ISZERO PUSH3 0x30A JUMPI PUSH1 0x0 DUP1 REVERT JUMPDEST PUSH1 0x0 SWAP4 POP JUMPDEST DUP3 DUP5 LT ISZERO PUSH3 0x32E JUMPI DUP5 DUP5 ADD DUP7 ADD MLOAD DUP2 DUP6 ADD DUP8 ADD MSTORE SWAP3 DUP6 ADD SWAP3 PUSH3 0x30F JUMP JUMPDEST DUP3 DUP5 GT ISZERO PUSH3 0x340 JUMPI PUSH1 0x0 DUP7 DUP5 DUP4 ADD ADD MSTORE JUMPDEST SWAP9 SWAP8 POP POP POP POP POP POP POP POP JUMP JUMPDEST PUSH1 0x1 DUP2 DUP2 SHR SWAP1 DUP3 AND DUP1 PUSH3 0x361 JUMPI PUSH1 0x7F DUP3 AND SWAP2 POP JUMPDEST PUSH1 0x20 DUP3 LT DUP2 EQ ISZERO PUSH3 0x383 JUMPI PUSH4 0x4E487B71 PUSH1 0xE0 SHL PUSH1 0x0 MSTORE PUSH1 0x22 PUSH1 0x4 MSTORE PUSH1 0x24 PUSH1 0x0 REVERT JUMPDEST POP SWAP2 SWAP1 POP JUMP JUMPDEST PUSH2 0x15AA DUP1 PUSH3 0x399 PUSH1 0x0 CODECOPY PUSH1 0x0 RETURN INVALID PUSH1 0x80 PUSH1 0x40 MSTORE CALLVALUE DUP1 ISZERO PUSH2 0x10 JUMPI PUSH1 0x0 DUP1 REVERT JUMPDEST POP PUSH1 0x4 CALLDATASIZE LT PUSH2 0x137 JUMPI PUSH1 0x0 CALLDATALOAD PUSH1 0xE0 SHR DUP1 PUSH4 0x6352211E GT PUSH2 0xB8 JUMPI DUP1 PUSH4 0x95D89B41 GT PUSH2 0x7C JUMPI DUP1 PUSH4 0x95D89B41 EQ PUSH2 0x276 JUMPI DUP1 PUSH4 0xB4618022 EQ PUSH2 0x27E JUMPI DUP1 PUSH4 0xC6682862 EQ PUSH2 0x291 JUMPI DUP1 PUSH4 0xC87B56DD EQ PUSH2 0x299 JUMPI DUP1 PUSH4 0xDA3EF23F EQ PUSH2 0x2AC JUMPI DUP1 PUSH4 0xF2FDE38B EQ PUSH2 0x2BF JUMPI PUSH1 0x0 DUP1 REVERT JUMPDEST DUP1 PUSH4 0x6352211E EQ PUSH2 0x22F JUMPI DUP1 PUSH4 0x6C0360EB EQ PUSH2 0x242 JUMPI DUP1 PUSH4 0x70A08231 EQ PUSH2 0x24A JUMPI DUP1 PUSH4 0x715018A6 EQ PUSH2 0x25D JUMPI DUP1 PUSH4 0x8DA5CB5B EQ PUSH2 0x265 JUMPI PUSH1 0x0 DUP1 REVERT JUMPDEST DUP1 PUSH4 0x4ADD9FB5 GT PUSH2 0xFF JUMPI DUP1 PUSH4 0x4ADD9FB5 EQ PUSH2 0x1B8 JUMPI DUP1 PUSH4 0x4EBBC92A EQ PUSH2 0x1E3 JUMPI DUP1 PUSH4 0x4F6CCCE7 EQ PUSH2 0x1F6 JUMPI DUP1 PUSH4 0x55F804B3 EQ PUSH2 0x209 JUMPI DUP1 PUSH4 0x5C5DB5F5 EQ PUSH2 0x21C JUMPI PUSH1 0x0 DUP1 REVERT JUMPDEST DUP1 PUSH4 0x1FFC9A7 EQ PUSH2 0x13C JUMPI DUP1 PUSH4 0x6FDDE03 EQ PUSH2 0x164 JUMPI DUP1 PUSH4 0x18160DDD EQ PUSH2 0x179 JUMPI DUP1 PUSH4 0x23B872DD EQ PUSH2 0x190 JUMPI DUP1 PUSH4 0x2F745C59 EQ PUSH2 0x1A5 JUMPI JUMPDEST PUSH1 0x0 DUP1 REVERT JUMPDEST PUSH2 0x14F PUSH2 0x14A CALLDATASIZE PUSH1 0x4 PUSH2 0x1070 JUMP JUMPDEST PUSH2 0x2D2 JUMP JUMPDEST PUSH1 0x40 MLOAD SWAP1 ISZERO ISZERO DUP2 MSTORE PUSH1 0x20 ADD JUMPDEST PUSH1 0x40 MLOAD DUP1 SWAP2 SUB SWAP1 RETURN JUMPDEST PUSH2 0x16C PUSH2 0x309 JUMP JUMPDEST PUSH1 0x40 MLOAD PUSH2 0x15B SWAP2 SWAP1 PUSH2 0x10E9 JUMP JUMPDEST PUSH2 0x182 PUSH1 0x7 SLOAD DUP2 JUMP JUMPDEST PUSH1 0x40 MLOAD SWAP1 DUP2 MSTORE PUSH1 0x20 ADD PUSH2 0x15B JUMP JUMPDEST PUSH2 0x1A3 PUSH2 0x19E CALLDATASIZE PUSH1 0x4 PUSH2 0x1118 JUMP JUMPDEST PUSH2 0x397 JUMP JUMPDEST STOP JUMPDEST PUSH2 0x182 PUSH2 0x1B3 CALLDATASIZE PUSH1 0x4 PUSH2 0x1154 JUMP JUMPDEST PUSH2 0x3DA JUMP JUMPDEST PUSH1 0x2 SLOAD PUSH2 0x1CB SWAP1 PUSH1 0x1 PUSH1 0x1 PUSH1 0xA0 SHL SUB AND DUP2 JUMP JUMPDEST PUSH1 0x40 MLOAD PUSH1 0x1 PUSH1 0x1 PUSH1 0xA0 SHL SUB SWAP1 SWAP2 AND DUP2 MSTORE PUSH1 0x20 ADD PUSH2 0x15B JUMP JUMPDEST PUSH2 0x14F PUSH2 0x1F1 CALLDATASIZE PUSH1 0x4 PUSH2 0x117E JUMP JUMPDEST PUSH2 0x44E JUMP JUMPDEST PUSH2 0x182 PUSH2 0x204 CALLDATASIZE PUSH1 0x4 PUSH2 0x117E JUMP JUMPDEST PUSH2 0x46B JUMP JUMPDEST PUSH2 0x1A3 PUSH2 0x217 CALLDATASIZE PUSH1 0x4 PUSH2 0x11AD JUMP JUMPDEST PUSH2 0x4D7 JUMP JUMPDEST PUSH2 0x1A3 PUSH2 0x22A CALLDATASIZE PUSH1 0x4 PUSH2 0x1154 JUMP JUMPDEST PUSH2 0x4F6 JUMP JUMPDEST PUSH2 0x1CB PUSH2 0x23D CALLDATASIZE PUSH1 0x4 PUSH2 0x117E JUMP JUMPDEST PUSH2 0x52A JUMP JUMPDEST PUSH2 0x16C PUSH2 0x56D JUMP JUMPDEST PUSH2 0x182 PUSH2 0x258 CALLDATASIZE PUSH1 0x4 PUSH2 0x125E JUMP JUMPDEST PUSH2 0x57A JUMP JUMPDEST PUSH2 0x1A3 PUSH2 0x5BE JUMP JUMPDEST PUSH1 0x0 SLOAD PUSH1 0x1 PUSH1 0x1 PUSH1 0xA0 SHL SUB AND PUSH2 0x1CB JUMP JUMPDEST PUSH2 0x16C PUSH2 0x5D2 JUMP JUMPDEST PUSH2 0x1A3 PUSH2 0x28C CALLDATASIZE PUSH1 0x4 PUSH2 0x125E JUMP JUMPDEST PUSH2 0x5DF JUMP JUMPDEST PUSH2 0x16C PUSH2 0x609 JUMP JUMPDEST PUSH2 0x16C PUSH2 0x2A7 CALLDATASIZE PUSH1 0x4 PUSH2 0x117E JUMP JUMPDEST PUSH2 0x616 JUMP JUMPDEST PUSH2 0x1A3 PUSH2 0x2BA CALLDATASIZE PUSH1 0x4 PUSH2 0x11AD JUMP JUMPDEST PUSH2 0x69C JUMP JUMPDEST PUSH2 0x1A3 PUSH2 0x2CD CALLDATASIZE PUSH1 0x4 PUSH2 0x125E JUMP JUMPDEST PUSH2 0x6B7 JUMP JUMPDEST PUSH1 0x0 PUSH4 0x80AC58CD PUSH1 0xE0 SHL PUSH1 0x1 PUSH1 0x1 PUSH1 0xE0 SHL SUB NOT DUP4 AND EQ DUP1 PUSH2 0x303 JUMPI POP PUSH4 0x5B5E139F PUSH1 0xE0 SHL PUSH1 0x1 PUSH1 0x1 PUSH1 0xE0 SHL SUB NOT DUP4 AND EQ JUMPDEST SWAP3 SWAP2 POP POP JUMP JUMPDEST PUSH1 0x4 DUP1 SLOAD PUSH2 0x316 SWAP1 PUSH2 0x1279 JUMP JUMPDEST DUP1 PUSH1 0x1F ADD PUSH1 0x20 DUP1 SWAP2 DIV MUL PUSH1 0x20 ADD PUSH1 0x40 MLOAD SWAP1 DUP2 ADD PUSH1 0x40 MSTORE DUP1 SWAP3 SWAP2 SWAP1 DUP2 DUP2 MSTORE PUSH1 0x20 ADD DUP3 DUP1 SLOAD PUSH2 0x342 SWAP1 PUSH2 0x1279 JUMP JUMPDEST DUP1 ISZERO PUSH2 0x38F JUMPI DUP1 PUSH1 0x1F LT PUSH2 0x364 JUMPI PUSH2 0x100 DUP1 DUP4 SLOAD DIV MUL DUP4 MSTORE SWAP2 PUSH1 0x20 ADD SWAP2 PUSH2 0x38F JUMP JUMPDEST DUP3 ADD SWAP2 SWAP1 PUSH1 0x0 MSTORE PUSH1 0x20 PUSH1 0x0 KECCAK256 SWAP1 JUMPDEST DUP2 SLOAD DUP2 MSTORE SWAP1 PUSH1 0x1 ADD SWAP1 PUSH1 0x20 ADD DUP1 DUP4 GT PUSH2 0x372 JUMPI DUP3 SWAP1 SUB PUSH1 0x1F AND DUP3 ADD SWAP2 JUMPDEST POP POP POP POP POP DUP2 JUMP JUMPDEST PUSH1 0x2 SLOAD PUSH1 0x1 PUSH1 0x1 PUSH1 0xA0 SHL SUB AND CALLER EQ PUSH2 0x3CA JUMPI PUSH1 0x40 MLOAD PUSH3 0x461BCD PUSH1 0xE5 SHL DUP2 MSTORE PUSH1 0x4 ADD PUSH2 0x3C1 SWAP1 PUSH2 0x12B4 JUMP JUMPDEST PUSH1 0x40 MLOAD DUP1 SWAP2 SUB SWAP1 REVERT JUMPDEST PUSH2 0x3D5 DUP4 DUP4 DUP4 PUSH2 0x730 JUMP JUMPDEST POP POP POP JUMP JUMPDEST PUSH1 0x0 PUSH2 0x3E5 DUP4 PUSH2 0x57A JUMP JUMPDEST DUP3 LT PUSH2 0x425 JUMPI PUSH1 0x40 MLOAD PUSH3 0x461BCD PUSH1 0xE5 SHL DUP2 MSTORE PUSH1 0x20 PUSH1 0x4 DUP3 ADD MSTORE PUSH1 0xF PUSH1 0x24 DUP3 ADD MSTORE PUSH15 0x32B93937B9103130B630B731B2A7B3 PUSH1 0x89 SHL PUSH1 0x44 DUP3 ADD MSTORE PUSH1 0x64 ADD PUSH2 0x3C1 JUMP JUMPDEST POP PUSH1 0x1 PUSH1 0x1 PUSH1 0xA0 SHL SUB SWAP2 SWAP1 SWAP2 AND PUSH1 0x0 SWAP1 DUP2 MSTORE PUSH1 0xD PUSH1 0x20 SWAP1 DUP2 MSTORE PUSH1 0x40 DUP1 DUP4 KECCAK256 SWAP4 DUP4 MSTORE SWAP3 SWAP1 MSTORE KECCAK256 SLOAD SWAP1 JUMP JUMPDEST PUSH1 0x0 SWAP1 DUP2 MSTORE PUSH1 0x8 PUSH1 0x20 MSTORE PUSH1 0x40 SWAP1 KECCAK256 SLOAD PUSH1 0x1 PUSH1 0x1 PUSH1 0xA0 SHL SUB AND ISZERO ISZERO SWAP1 JUMP JUMPDEST PUSH1 0x0 PUSH1 0x7 SLOAD DUP3 LT PUSH2 0x4B2 JUMPI PUSH1 0x40 MLOAD PUSH3 0x461BCD PUSH1 0xE5 SHL DUP2 MSTORE PUSH1 0x20 PUSH1 0x4 DUP3 ADD MSTORE PUSH1 0x11 PUSH1 0x24 DUP3 ADD MSTORE PUSH17 0x6572726F7220746F74616C537570706C79 PUSH1 0x78 SHL PUSH1 0x44 DUP3 ADD MSTORE PUSH1 0x64 ADD PUSH2 0x3C1 JUMP JUMPDEST PUSH1 0xA DUP3 DUP2 SLOAD DUP2 LT PUSH2 0x4C5 JUMPI PUSH2 0x4C5 PUSH2 0x12DB JUMP JUMPDEST SWAP1 PUSH1 0x0 MSTORE PUSH1 0x20 PUSH1 0x0 KECCAK256 ADD SLOAD SWAP1 POP SWAP2 SWAP1 POP JUMP JUMPDEST PUSH2 0x4DF PUSH2 0x913 JUMP JUMPDEST DUP1 MLOAD PUSH2 0x4F2 SWAP1 PUSH1 0x5 SWAP1 PUSH1 0x20 DUP5 ADD SWAP1 PUSH2 0xFC1 JUMP JUMPDEST POP POP JUMP JUMPDEST PUSH1 0x2 SLOAD PUSH1 0x1 PUSH1 0x1 PUSH1 0xA0 SHL SUB AND CALLER EQ PUSH2 0x520 JUMPI PUSH1 0x40 MLOAD PUSH3 0x461BCD PUSH1 0xE5 SHL DUP2 MSTORE PUSH1 0x4 ADD PUSH2 0x3C1 SWAP1 PUSH2 0x12B4 JUMP JUMPDEST PUSH2 0x4F2 DUP3 DUP3 PUSH2 0x96D JUMP JUMPDEST PUSH1 0x0 PUSH2 0x535 DUP3 PUSH2 0x44E JUMP JUMPDEST PUSH2 0x551 JUMPI PUSH1 0x40 MLOAD PUSH3 0x461BCD PUSH1 0xE5 SHL DUP2 MSTORE PUSH1 0x4 ADD PUSH2 0x3C1 SWAP1 PUSH2 0x12F1 JUMP JUMPDEST POP PUSH1 0x0 SWAP1 DUP2 MSTORE PUSH1 0x8 PUSH1 0x20 MSTORE PUSH1 0x40 SWAP1 KECCAK256 SLOAD PUSH1 0x1 PUSH1 0x1 PUSH1 0xA0 SHL SUB AND SWAP1 JUMP JUMPDEST PUSH1 0x5 DUP1 SLOAD PUSH2 0x316 SWAP1 PUSH2 0x1279 JUMP JUMPDEST PUSH1 0x0 PUSH1 0x1 PUSH1 0x1 PUSH1 0xA0 SHL SUB DUP3 AND PUSH2 0x5A2 JUMPI PUSH1 0x40 MLOAD PUSH3 0x461BCD PUSH1 0xE5 SHL DUP2 MSTORE PUSH1 0x4 ADD PUSH2 0x3C1 SWAP1 PUSH2 0x1316 JUMP JUMPDEST POP PUSH1 0x1 PUSH1 0x1 PUSH1 0xA0 SHL SUB AND PUSH1 0x0 SWAP1 DUP2 MSTORE PUSH1 0x9 PUSH1 0x20 MSTORE PUSH1 0x40 SWAP1 KECCAK256 SLOAD SWAP1 JUMP JUMPDEST PUSH2 0x5C6 PUSH2 0x913 JUMP JUMPDEST PUSH2 0x5D0 PUSH1 0x0 PUSH2 0xAFF JUMP JUMPDEST JUMP JUMPDEST PUSH1 0x3 DUP1 SLOAD PUSH2 0x316 SWAP1 PUSH2 0x1279 JUMP JUMPDEST PUSH2 0x5E7 PUSH2 0x913 JUMP JUMPDEST PUSH1 0x2 DUP1 SLOAD PUSH1 0x1 PUSH1 0x1 PUSH1 0xA0 SHL SUB NOT AND PUSH1 0x1 PUSH1 0x1 PUSH1 0xA0 SHL SUB SWAP3 SWAP1 SWAP3 AND SWAP2 SWAP1 SWAP2 OR SWAP1 SSTORE JUMP JUMPDEST PUSH1 0x6 DUP1 SLOAD PUSH2 0x316 SWAP1 PUSH2 0x1279 JUMP JUMPDEST PUSH1 0x60 PUSH2 0x621 DUP3 PUSH2 0x44E JUMP JUMPDEST PUSH2 0x63D JUMPI PUSH1 0x40 MLOAD PUSH3 0x461BCD PUSH1 0xE5 SHL DUP2 MSTORE PUSH1 0x4 ADD PUSH2 0x3C1 SWAP1 PUSH2 0x12F1 JUMP JUMPDEST PUSH1 0x0 PUSH2 0x647 PUSH2 0xB4F JUMP JUMPDEST SWAP1 POP PUSH1 0x0 DUP2 MLOAD GT PUSH2 0x667 JUMPI PUSH1 0x40 MLOAD DUP1 PUSH1 0x20 ADD PUSH1 0x40 MSTORE DUP1 PUSH1 0x0 DUP2 MSTORE POP PUSH2 0x695 JUMP JUMPDEST DUP1 PUSH2 0x671 DUP5 PUSH2 0xBE1 JUMP JUMPDEST PUSH1 0x6 PUSH1 0x40 MLOAD PUSH1 0x20 ADD PUSH2 0x685 SWAP4 SWAP3 SWAP2 SWAP1 PUSH2 0x133B JUMP JUMPDEST PUSH1 0x40 MLOAD PUSH1 0x20 DUP2 DUP4 SUB SUB DUP2 MSTORE SWAP1 PUSH1 0x40 MSTORE JUMPDEST SWAP4 SWAP3 POP POP POP JUMP JUMPDEST PUSH2 0x6A4 PUSH2 0x913 JUMP JUMPDEST DUP1 MLOAD PUSH2 0x4F2 SWAP1 PUSH1 0x6 SWAP1 PUSH1 0x20 DUP5 ADD SWAP1 PUSH2 0xFC1 JUMP JUMPDEST PUSH2 0x6BF PUSH2 0x913 JUMP JUMPDEST PUSH1 0x1 PUSH1 0x1 PUSH1 0xA0 SHL SUB DUP2 AND PUSH2 0x724 JUMPI PUSH1 0x40 MLOAD PUSH3 0x461BCD PUSH1 0xE5 SHL DUP2 MSTORE PUSH1 0x20 PUSH1 0x4 DUP3 ADD MSTORE PUSH1 0x26 PUSH1 0x24 DUP3 ADD MSTORE PUSH32 0x4F776E61626C653A206E6577206F776E657220697320746865207A65726F2061 PUSH1 0x44 DUP3 ADD MSTORE PUSH6 0x646472657373 PUSH1 0xD0 SHL PUSH1 0x64 DUP3 ADD MSTORE PUSH1 0x84 ADD PUSH2 0x3C1 JUMP JUMPDEST PUSH2 0x72D DUP2 PUSH2 0xAFF JUMP JUMPDEST POP JUMP JUMPDEST PUSH2 0x739 DUP2 PUSH2 0x44E JUMP JUMPDEST PUSH2 0x755 JUMPI PUSH1 0x40 MLOAD PUSH3 0x461BCD PUSH1 0xE5 SHL DUP2 MSTORE PUSH1 0x4 ADD PUSH2 0x3C1 SWAP1 PUSH2 0x12F1 JUMP JUMPDEST PUSH1 0x1 PUSH1 0x1 PUSH1 0xA0 SHL SUB DUP3 AND PUSH2 0x77B JUMPI PUSH1 0x40 MLOAD PUSH3 0x461BCD PUSH1 0xE5 SHL DUP2 MSTORE PUSH1 0x4 ADD PUSH2 0x3C1 SWAP1 PUSH2 0x13FF JUMP JUMPDEST PUSH2 0x784 DUP2 PUSH2 0x52A JUMP JUMPDEST PUSH1 0x1 PUSH1 0x1 PUSH1 0xA0 SHL SUB AND DUP4 PUSH1 0x1 PUSH1 0x1 PUSH1 0xA0 SHL SUB AND EQ PUSH2 0x7B4 JUMPI PUSH1 0x40 MLOAD PUSH3 0x461BCD PUSH1 0xE5 SHL DUP2 MSTORE PUSH1 0x4 ADD PUSH2 0x3C1 SWAP1 PUSH2 0x1316 JUMP JUMPDEST PUSH1 0x1 PUSH1 0x1 PUSH1 0xA0 SHL SUB DUP4 AND PUSH2 0x7D0 JUMPI PUSH2 0x7CB DUP2 PUSH2 0xCE7 JUMP JUMPDEST PUSH2 0x7F3 JUMP JUMPDEST DUP2 PUSH1 0x1 PUSH1 0x1 PUSH1 0xA0 SHL SUB AND DUP4 PUSH1 0x1 PUSH1 0x1 PUSH1 0xA0 SHL SUB AND EQ PUSH2 0x7F3 JUMPI PUSH2 0x7F3 DUP4 DUP3 PUSH2 0xD2B JUMP JUMPDEST PUSH1 0x1 PUSH1 0x1 PUSH1 0xA0 SHL SUB DUP3 AND PUSH2 0x80F JUMPI PUSH2 0x80A DUP2 PUSH2 0xDC8 JUMP JUMPDEST PUSH2 0x832 JUMP JUMPDEST DUP3 PUSH1 0x1 PUSH1 0x1 PUSH1 0xA0 SHL SUB AND DUP3 PUSH1 0x1 PUSH1 0x1 PUSH1 0xA0 SHL SUB AND EQ PUSH2 0x832 JUMPI PUSH2 0x832 DUP3 DUP3 PUSH2 0xE77 JUMP JUMPDEST PUSH1 0x1 PUSH1 0x1 PUSH1 0xA0 SHL SUB DUP4 AND PUSH1 0x0 SWAP1 DUP2 MSTORE PUSH1 0x9 PUSH1 0x20 MSTORE PUSH1 0x40 DUP2 KECCAK256 DUP1 SLOAD SWAP2 PUSH2 0x856 DUP4 PUSH2 0x1437 JUMP JUMPDEST SWAP1 SWAP2 SSTORE POP POP PUSH1 0x1 PUSH1 0x1 PUSH1 0xA0 SHL SUB DUP3 AND PUSH1 0x0 SWAP1 DUP2 MSTORE PUSH1 0x9 PUSH1 0x20 MSTORE PUSH1 0x40 DUP2 KECCAK256 DUP1 SLOAD SWAP2 PUSH2 0x87F DUP4 PUSH2 0x144E JUMP JUMPDEST SWAP1 SWAP2 SSTORE POP POP PUSH1 0x0 DUP2 DUP2 MSTORE PUSH1 0x8 PUSH1 0x20 MSTORE PUSH1 0x40 DUP1 DUP3 KECCAK256 DUP1 SLOAD PUSH1 0x1 PUSH1 0x1 PUSH1 0xA0 SHL SUB NOT AND PUSH1 0x1 PUSH1 0x1 PUSH1 0xA0 SHL SUB DUP7 DUP2 AND SWAP2 DUP3 OR SWAP1 SWAP3 SSTORE SWAP2 MLOAD DUP5 SWAP4 SWAP2 DUP8 AND SWAP2 PUSH32 0xDDF252AD1BE2C89B69C2B068FC378DAA952BA7F163C4A11628F55A4DF523B3EF SWAP2 LOG4 PUSH2 0x8F7 PUSH1 0x0 DUP4 DUP4 PUSH1 0x40 MLOAD DUP1 PUSH1 0x20 ADD PUSH1 0x40 MSTORE DUP1 PUSH1 0x0 DUP2 MSTORE POP PUSH2 0xEBB JUMP JUMPDEST PUSH2 0x3D5 JUMPI PUSH1 0x40 MLOAD PUSH3 0x461BCD PUSH1 0xE5 SHL DUP2 MSTORE PUSH1 0x4 ADD PUSH2 0x3C1 SWAP1 PUSH2 0x1469 JUMP JUMPDEST PUSH1 0x0 SLOAD PUSH1 0x1 PUSH1 0x1 PUSH1 0xA0 SHL SUB AND CALLER EQ PUSH2 0x5D0 JUMPI PUSH1 0x40 MLOAD PUSH3 0x461BCD PUSH1 0xE5 SHL DUP2 MSTORE PUSH1 0x20 PUSH1 0x4 DUP3 ADD DUP2 SWAP1 MSTORE PUSH1 0x24 DUP3 ADD MSTORE PUSH32 0x4F776E61626C653A2063616C6C6572206973206E6F7420746865206F776E6572 PUSH1 0x44 DUP3 ADD MSTORE PUSH1 0x64 ADD PUSH2 0x3C1 JUMP JUMPDEST PUSH1 0x0 PUSH1 0x1 PUSH1 0x1 PUSH1 0xA0 SHL SUB DUP4 AND PUSH2 0x995 JUMPI PUSH1 0x40 MLOAD PUSH3 0x461BCD PUSH1 0xE5 SHL DUP2 MSTORE PUSH1 0x4 ADD PUSH2 0x3C1 SWAP1 PUSH2 0x13FF JUMP JUMPDEST PUSH1 0x0 DUP3 DUP2 MSTORE PUSH1 0x8 PUSH1 0x20 MSTORE PUSH1 0x40 SWAP1 KECCAK256 SLOAD PUSH1 0x1 PUSH1 0x1 PUSH1 0xA0 SHL SUB AND ISZERO PUSH2 0x9CA JUMPI PUSH1 0x40 MLOAD PUSH3 0x461BCD PUSH1 0xE5 SHL DUP2 MSTORE PUSH1 0x4 ADD PUSH2 0x3C1 SWAP1 PUSH2 0x1316 JUMP JUMPDEST PUSH1 0x1 PUSH1 0x1 PUSH1 0xA0 SHL SUB DUP2 AND PUSH2 0x9E6 JUMPI PUSH2 0x9E1 DUP3 PUSH2 0xCE7 JUMP JUMPDEST PUSH2 0xA09 JUMP JUMPDEST DUP3 PUSH1 0x1 PUSH1 0x1 PUSH1 0xA0 SHL SUB AND DUP2 PUSH1 0x1 PUSH1 0x1 PUSH1 0xA0 SHL SUB AND EQ PUSH2 0xA09 JUMPI PUSH2 0xA09 DUP2 DUP4 PUSH2 0xD2B JUMP JUMPDEST PUSH1 0x1 PUSH1 0x1 PUSH1 0xA0 SHL SUB DUP4 AND PUSH2 0xA25 JUMPI PUSH2 0xA20 DUP3 PUSH2 0xDC8 JUMP JUMPDEST PUSH2 0xA48 JUMP JUMPDEST DUP1 PUSH1 0x1 PUSH1 0x1 PUSH1 0xA0 SHL SUB AND DUP4 PUSH1 0x1 PUSH1 0x1 PUSH1 0xA0 SHL SUB AND EQ PUSH2 0xA48 JUMPI PUSH2 0xA48 DUP4 DUP4 PUSH2 0xE77 JUMP JUMPDEST PUSH1 0x1 PUSH1 0x1 PUSH1 0xA0 SHL SUB DUP4 AND PUSH1 0x0 SWAP1 DUP2 MSTORE PUSH1 0x9 PUSH1 0x20 MSTORE PUSH1 0x40 DUP2 KECCAK256 DUP1 SLOAD SWAP2 PUSH2 0xA6C DUP4 PUSH2 0x144E JUMP JUMPDEST SWAP1 SWAP2 SSTORE POP POP PUSH1 0x0 DUP3 DUP2 MSTORE PUSH1 0x8 PUSH1 0x20 MSTORE PUSH1 0x40 DUP2 KECCAK256 DUP1 SLOAD PUSH1 0x1 PUSH1 0x1 PUSH1 0xA0 SHL SUB NOT AND PUSH1 0x1 PUSH1 0x1 PUSH1 0xA0 SHL SUB DUP7 AND OR SWAP1 SSTORE PUSH1 0x7 DUP1 SLOAD SWAP2 PUSH2 0xAA6 DUP4 PUSH2 0x144E JUMP JUMPDEST SWAP1 SWAP2 SSTORE POP POP PUSH1 0x40 MLOAD DUP3 SWAP1 PUSH1 0x1 PUSH1 0x1 PUSH1 0xA0 SHL SUB DUP6 AND SWAP1 PUSH1 0x0 SWAP1 PUSH32 0xDDF252AD1BE2C89B69C2B068FC378DAA952BA7F163C4A11628F55A4DF523B3EF SWAP1 DUP3 SWAP1 LOG4 PUSH2 0x8F7 PUSH1 0x0 DUP5 DUP5 PUSH1 0x40 MLOAD DUP1 PUSH1 0x20 ADD PUSH1 0x40 MSTORE DUP1 PUSH1 0x0 DUP2 MSTORE POP PUSH2 0xEBB JUMP JUMPDEST PUSH1 0x0 DUP1 SLOAD PUSH1 0x1 PUSH1 0x1 PUSH1 0xA0 SHL SUB DUP4 DUP2 AND PUSH1 0x1 PUSH1 0x1 PUSH1 0xA0 SHL SUB NOT DUP4 AND DUP2 OR DUP5 SSTORE PUSH1 0x40 MLOAD SWAP2 SWAP1 SWAP3 AND SWAP3 DUP4 SWAP2 PUSH32 0x8BE0079C531659141344CD1FD0A4F28419497F9722A3DAAFE3B4186F6B6457E0 SWAP2 SWAP1 LOG3 POP POP JUMP JUMPDEST PUSH1 0x60 PUSH1 0x5 DUP1 SLOAD PUSH2 0xB5E SWAP1 PUSH2 0x1279 JUMP JUMPDEST DUP1 PUSH1 0x1F ADD PUSH1 0x20 DUP1 SWAP2 DIV MUL PUSH1 0x20 ADD PUSH1 0x40 MLOAD SWAP1 DUP2 ADD PUSH1 0x40 MSTORE DUP1 SWAP3 SWAP2 SWAP1 DUP2 DUP2 MSTORE PUSH1 0x20 ADD DUP3 DUP1 SLOAD PUSH2 0xB8A SWAP1 PUSH2 0x1279 JUMP JUMPDEST DUP1 ISZERO PUSH2 0xBD7 JUMPI DUP1 PUSH1 0x1F LT PUSH2 0xBAC JUMPI PUSH2 0x100 DUP1 DUP4 SLOAD DIV MUL DUP4 MSTORE SWAP2 PUSH1 0x20 ADD SWAP2 PUSH2 0xBD7 JUMP JUMPDEST DUP3 ADD SWAP2 SWAP1 PUSH1 0x0 MSTORE PUSH1 0x20 PUSH1 0x0 KECCAK256 SWAP1 JUMPDEST DUP2 SLOAD DUP2 MSTORE SWAP1 PUSH1 0x1 ADD SWAP1 PUSH1 0x20 ADD DUP1 DUP4 GT PUSH2 0xBBA JUMPI DUP3 SWAP1 SUB PUSH1 0x1F AND DUP3 ADD SWAP2 JUMPDEST POP POP POP POP POP SWAP1 POP SWAP1 JUMP JUMPDEST PUSH1 0x60 DUP2 PUSH2 0xC05 JUMPI POP POP PUSH1 0x40 DUP1 MLOAD DUP1 DUP3 ADD SWAP1 SWAP2 MSTORE PUSH1 0x1 DUP2 MSTORE PUSH1 0x3 PUSH1 0xFC SHL PUSH1 0x20 DUP3 ADD MSTORE SWAP1 JUMP JUMPDEST PUSH1 0x0 DUP3 JUMPDEST DUP1 ISZERO PUSH2 0xC2F JUMPI DUP2 PUSH2 0xC19 DUP2 PUSH2 0x144E JUMP JUMPDEST SWAP3 POP PUSH2 0xC28 SWAP1 POP PUSH1 0xA DUP3 PUSH2 0x14AD JUMP JUMPDEST SWAP1 POP PUSH2 0xC09 JUMP JUMPDEST PUSH1 0x0 DUP3 PUSH8 0xFFFFFFFFFFFFFFFF DUP2 GT ISZERO PUSH2 0xC4A JUMPI PUSH2 0xC4A PUSH2 0x1197 JUMP JUMPDEST PUSH1 0x40 MLOAD SWAP1 DUP1 DUP3 MSTORE DUP1 PUSH1 0x1F ADD PUSH1 0x1F NOT AND PUSH1 0x20 ADD DUP3 ADD PUSH1 0x40 MSTORE DUP1 ISZERO PUSH2 0xC74 JUMPI PUSH1 0x20 DUP3 ADD DUP2 DUP1 CALLDATASIZE DUP4 CALLDATACOPY ADD SWAP1 POP JUMPDEST POP SWAP1 POP JUMPDEST DUP5 ISZERO PUSH2 0xCDF JUMPI PUSH2 0xC89 PUSH1 0x1 DUP5 PUSH2 0x14C1 JUMP JUMPDEST SWAP3 POP PUSH2 0xC96 PUSH1 0xA DUP7 PUSH2 0x14D8 JUMP JUMPDEST PUSH2 0xCA1 SWAP1 PUSH1 0x30 PUSH2 0x14EC JUMP JUMPDEST PUSH1 0xF8 SHL DUP2 DUP5 DUP2 MLOAD DUP2 LT PUSH2 0xCB6 JUMPI PUSH2 0xCB6 PUSH2 0x12DB JUMP JUMPDEST PUSH1 0x20 ADD ADD SWAP1 PUSH1 0x1 PUSH1 0x1 PUSH1 0xF8 SHL SUB NOT AND SWAP1 DUP2 PUSH1 0x0 BYTE SWAP1 MSTORE8 POP PUSH2 0xCD8 PUSH1 0xA DUP7 PUSH2 0x14AD JUMP JUMPDEST SWAP5 POP PUSH2 0xC78 JUMP JUMPDEST SWAP5 SWAP4 POP POP POP POP JUMP JUMPDEST PUSH1 0xA DUP1 SLOAD PUSH1 0x0 DUP4 DUP2 MSTORE PUSH1 0xB PUSH1 0x20 MSTORE PUSH1 0x40 DUP2 KECCAK256 DUP3 SWAP1 SSTORE PUSH1 0x1 DUP3 ADD DUP4 SSTORE SWAP2 SWAP1 SWAP2 MSTORE PUSH32 0xC65A7BB8D6351C1CF70C95A316CC6A92839C986682D98BC35F958F4883F9D2A8 ADD SSTORE JUMP JUMPDEST PUSH1 0x0 PUSH1 0x1 PUSH2 0xD38 DUP5 PUSH2 0x57A JUMP JUMPDEST PUSH2 0xD42 SWAP2 SWAP1 PUSH2 0x14C1 JUMP JUMPDEST PUSH1 0x0 DUP4 DUP2 MSTORE PUSH1 0xC PUSH1 0x20 MSTORE PUSH1 0x40 SWAP1 KECCAK256 SLOAD SWAP1 SWAP2 POP DUP1 DUP3 EQ PUSH2 0xD95 JUMPI PUSH1 0x1 PUSH1 0x1 PUSH1 0xA0 SHL SUB DUP5 AND PUSH1 0x0 SWAP1 DUP2 MSTORE PUSH1 0xD PUSH1 0x20 SWAP1 DUP2 MSTORE PUSH1 0x40 DUP1 DUP4 KECCAK256 DUP6 DUP5 MSTORE DUP3 MSTORE DUP1 DUP4 KECCAK256 SLOAD DUP5 DUP5 MSTORE DUP2 DUP5 KECCAK256 DUP2 SWAP1 SSTORE DUP4 MSTORE PUSH1 0xC SWAP1 SWAP2 MSTORE SWAP1 KECCAK256 DUP2 SWAP1 SSTORE JUMPDEST POP PUSH1 0x0 SWAP2 DUP3 MSTORE PUSH1 0xC PUSH1 0x20 SWAP1 DUP2 MSTORE PUSH1 0x40 DUP1 DUP5 KECCAK256 DUP5 SWAP1 SSTORE PUSH1 0x1 PUSH1 0x1 PUSH1 0xA0 SHL SUB SWAP1 SWAP5 AND DUP4 MSTORE PUSH1 0xD DUP2 MSTORE DUP4 DUP4 KECCAK256 SWAP2 DUP4 MSTORE MSTORE SWAP1 DUP2 KECCAK256 SSTORE JUMP JUMPDEST PUSH1 0xA SLOAD PUSH1 0x0 SWAP1 PUSH2 0xDDA SWAP1 PUSH1 0x1 SWAP1 PUSH2 0x14C1 JUMP JUMPDEST PUSH1 0x0 DUP4 DUP2 MSTORE PUSH1 0xB PUSH1 0x20 MSTORE PUSH1 0x40 DUP2 KECCAK256 SLOAD PUSH1 0xA DUP1 SLOAD SWAP4 SWAP5 POP SWAP1 SWAP3 DUP5 SWAP1 DUP2 LT PUSH2 0xE02 JUMPI PUSH2 0xE02 PUSH2 0x12DB JUMP JUMPDEST SWAP1 PUSH1 0x0 MSTORE PUSH1 0x20 PUSH1 0x0 KECCAK256 ADD SLOAD SWAP1 POP DUP1 PUSH1 0xA DUP4 DUP2 SLOAD DUP2 LT PUSH2 0xE23 JUMPI PUSH2 0xE23 PUSH2 0x12DB JUMP JUMPDEST PUSH1 0x0 SWAP2 DUP3 MSTORE PUSH1 0x20 DUP1 DUP4 KECCAK256 SWAP1 SWAP2 ADD SWAP3 SWAP1 SWAP3 SSTORE DUP3 DUP2 MSTORE PUSH1 0xB SWAP1 SWAP2 MSTORE PUSH1 0x40 DUP1 DUP3 KECCAK256 DUP5 SWAP1 SSTORE DUP6 DUP3 MSTORE DUP2 KECCAK256 SSTORE PUSH1 0xA DUP1 SLOAD DUP1 PUSH2 0xE5B JUMPI PUSH2 0xE5B PUSH2 0x1504 JUMP JUMPDEST PUSH1 0x1 SWAP1 SUB DUP2 DUP2 SWAP1 PUSH1 0x0 MSTORE PUSH1 0x20 PUSH1 0x0 KECCAK256 ADD PUSH1 0x0 SWAP1 SSTORE SWAP1 SSTORE POP POP POP POP JUMP JUMPDEST PUSH1 0x0 PUSH2 0xE82 DUP4 PUSH2 0x57A JUMP JUMPDEST PUSH1 0x1 PUSH1 0x1 PUSH1 0xA0 SHL SUB SWAP1 SWAP4 AND PUSH1 0x0 SWAP1 DUP2 MSTORE PUSH1 0xD PUSH1 0x20 SWAP1 DUP2 MSTORE PUSH1 0x40 DUP1 DUP4 KECCAK256 DUP7 DUP5 MSTORE DUP3 MSTORE DUP1 DUP4 KECCAK256 DUP6 SWAP1 SSTORE SWAP4 DUP3 MSTORE PUSH1 0xC SWAP1 MSTORE SWAP2 SWAP1 SWAP2 KECCAK256 SWAP2 SWAP1 SWAP2 SSTORE POP JUMP JUMPDEST PUSH1 0x0 DUP4 EXTCODESIZE DUP1 ISZERO PUSH2 0xFB7 JUMPI PUSH1 0x40 MLOAD PUSH4 0xA85BD01 PUSH1 0xE1 SHL DUP2 MSTORE PUSH1 0x1 PUSH1 0x1 PUSH1 0xA0 SHL SUB DUP7 AND SWAP1 PUSH4 0x150B7A02 SWAP1 PUSH2 0xEF7 SWAP1 CALLER SWAP1 DUP11 SWAP1 DUP10 SWAP1 DUP10 SWAP1 PUSH1 0x4 ADD PUSH2 0x151A JUMP JUMPDEST PUSH1 0x20 PUSH1 0x40 MLOAD DUP1 DUP4 SUB DUP2 PUSH1 0x0 DUP8 DUP1 EXTCODESIZE ISZERO DUP1 ISZERO PUSH2 0xF11 JUMPI PUSH1 0x0 DUP1 REVERT JUMPDEST POP GAS CALL SWAP3 POP POP POP DUP1 ISZERO PUSH2 0xF41 JUMPI POP PUSH1 0x40 DUP1 MLOAD PUSH1 0x1F RETURNDATASIZE SWAP1 DUP2 ADD PUSH1 0x1F NOT AND DUP3 ADD SWAP1 SWAP3 MSTORE PUSH2 0xF3E SWAP2 DUP2 ADD SWAP1 PUSH2 0x1557 JUMP JUMPDEST PUSH1 0x1 JUMPDEST PUSH2 0xF9B JUMPI RETURNDATASIZE DUP1 DUP1 ISZERO PUSH2 0xF6F JUMPI PUSH1 0x40 MLOAD SWAP2 POP PUSH1 0x1F NOT PUSH1 0x3F RETURNDATASIZE ADD AND DUP3 ADD PUSH1 0x40 MSTORE RETURNDATASIZE DUP3 MSTORE RETURNDATASIZE PUSH1 0x0 PUSH1 0x20 DUP5 ADD RETURNDATACOPY PUSH2 0xF74 JUMP JUMPDEST PUSH1 0x60 SWAP2 POP JUMPDEST POP DUP1 MLOAD PUSH2 0xF93 JUMPI PUSH1 0x40 MLOAD PUSH3 0x461BCD PUSH1 0xE5 SHL DUP2 MSTORE PUSH1 0x4 ADD PUSH2 0x3C1 SWAP1 PUSH2 0x1469 JUMP JUMPDEST DUP1 MLOAD DUP2 PUSH1 0x20 ADD REVERT JUMPDEST PUSH1 0x1 PUSH1 0x1 PUSH1 0xE0 SHL SUB NOT AND PUSH4 0xA85BD01 PUSH1 0xE1 SHL EQ SWAP2 POP PUSH2 0xCDF SWAP1 POP JUMP JUMPDEST PUSH1 0x1 SWAP2 POP POP PUSH2 0xCDF JUMP JUMPDEST DUP3 DUP1 SLOAD PUSH2 0xFCD SWAP1 PUSH2 0x1279 JUMP JUMPDEST SWAP1 PUSH1 0x0 MSTORE PUSH1 0x20 PUSH1 0x0 KECCAK256 SWAP1 PUSH1 0x1F ADD PUSH1 0x20 SWAP1 DIV DUP2 ADD SWAP3 DUP3 PUSH2 0xFEF JUMPI PUSH1 0x0 DUP6 SSTORE PUSH2 0x1035 JUMP JUMPDEST DUP3 PUSH1 0x1F LT PUSH2 0x1008 JUMPI DUP1 MLOAD PUSH1 0xFF NOT AND DUP4 DUP1 ADD OR DUP6 SSTORE PUSH2 0x1035 JUMP JUMPDEST DUP3 DUP1 ADD PUSH1 0x1 ADD DUP6 SSTORE DUP3 ISZERO PUSH2 0x1035 JUMPI SWAP2 DUP3 ADD JUMPDEST DUP3 DUP2 GT ISZERO PUSH2 0x1035 JUMPI DUP3 MLOAD DUP3 SSTORE SWAP2 PUSH1 0x20 ADD SWAP2 SWAP1 PUSH1 0x1 ADD SWAP1 PUSH2 0x101A JUMP JUMPDEST POP PUSH2 0x1041 SWAP3 SWAP2 POP PUSH2 0x1045 JUMP JUMPDEST POP SWAP1 JUMP JUMPDEST JUMPDEST DUP1 DUP3 GT ISZERO PUSH2 0x1041 JUMPI PUSH1 0x0 DUP2 SSTORE PUSH1 0x1 ADD PUSH2 0x1046 JUMP JUMPDEST PUSH1 0x1 PUSH1 0x1 PUSH1 0xE0 SHL SUB NOT DUP2 AND DUP2 EQ PUSH2 0x72D JUMPI PUSH1 0x0 DUP1 REVERT JUMPDEST PUSH1 0x0 PUSH1 0x20 DUP3 DUP5 SUB SLT ISZERO PUSH2 0x1082 JUMPI PUSH1 0x0 DUP1 REVERT JUMPDEST DUP2 CALLDATALOAD PUSH2 0x695 DUP2 PUSH2 0x105A JUMP JUMPDEST PUSH1 0x0 JUMPDEST DUP4 DUP2 LT ISZERO PUSH2 0x10A8 JUMPI DUP2 DUP2 ADD MLOAD DUP4 DUP3 ADD MSTORE PUSH1 0x20 ADD PUSH2 0x1090 JUMP JUMPDEST DUP4 DUP2 GT ISZERO PUSH2 0x10B7 JUMPI PUSH1 0x0 DUP5 DUP5 ADD MSTORE JUMPDEST POP POP POP POP JUMP JUMPDEST PUSH1 0x0 DUP2 MLOAD DUP1 DUP5 MSTORE PUSH2 0x10D5 DUP2 PUSH1 0x20 DUP7 ADD PUSH1 0x20 DUP7 ADD PUSH2 0x108D JUMP JUMPDEST PUSH1 0x1F ADD PUSH1 0x1F NOT AND SWAP3 SWAP1 SWAP3 ADD PUSH1 0x20 ADD SWAP3 SWAP2 POP POP JUMP JUMPDEST PUSH1 0x20 DUP2 MSTORE PUSH1 0x0 PUSH2 0x695 PUSH1 0x20 DUP4 ADD DUP5 PUSH2 0x10BD JUMP JUMPDEST DUP1 CALLDATALOAD PUSH1 0x1 PUSH1 0x1 PUSH1 0xA0 SHL SUB DUP2 AND DUP2 EQ PUSH2 0x1113 JUMPI PUSH1 0x0 DUP1 REVERT JUMPDEST SWAP2 SWAP1 POP JUMP JUMPDEST PUSH1 0x0 DUP1 PUSH1 0x0 PUSH1 0x60 DUP5 DUP7 SUB SLT ISZERO PUSH2 0x112D JUMPI PUSH1 0x0 DUP1 REVERT JUMPDEST PUSH2 0x1136 DUP5 PUSH2 0x10FC JUMP JUMPDEST SWAP3 POP PUSH2 0x1144 PUSH1 0x20 DUP6 ADD PUSH2 0x10FC JUMP JUMPDEST SWAP2 POP PUSH1 0x40 DUP5 ADD CALLDATALOAD SWAP1 POP SWAP3 POP SWAP3 POP SWAP3 JUMP JUMPDEST PUSH1 0x0 DUP1 PUSH1 0x40 DUP4 DUP6 SUB SLT ISZERO PUSH2 0x1167 JUMPI PUSH1 0x0 DUP1 REVERT JUMPDEST PUSH2 0x1170 DUP4 PUSH2 0x10FC JUMP JUMPDEST SWAP5 PUSH1 0x20 SWAP4 SWAP1 SWAP4 ADD CALLDATALOAD SWAP4 POP POP POP JUMP JUMPDEST PUSH1 0x0 PUSH1 0x20 DUP3 DUP5 SUB SLT ISZERO PUSH2 0x1190 JUMPI PUSH1 0x0 DUP1 REVERT JUMPDEST POP CALLDATALOAD SWAP2 SWAP1 POP JUMP JUMPDEST PUSH4 0x4E487B71 PUSH1 0xE0 SHL PUSH1 0x0 MSTORE PUSH1 0x41 PUSH1 0x4 MSTORE PUSH1 0x24 PUSH1 0x0 REVERT JUMPDEST PUSH1 0x0 PUSH1 0x20 DUP3 DUP5 SUB SLT ISZERO PUSH2 0x11BF JUMPI PUSH1 0x0 DUP1 REVERT JUMPDEST DUP2 CALLDATALOAD PUSH8 0xFFFFFFFFFFFFFFFF DUP1 DUP3 GT ISZERO PUSH2 0x11D7 JUMPI PUSH1 0x0 DUP1 REVERT JUMPDEST DUP2 DUP5 ADD SWAP2 POP DUP5 PUSH1 0x1F DUP4 ADD SLT PUSH2 0x11EB JUMPI PUSH1 0x0 DUP1 REVERT JUMPDEST DUP2 CALLDATALOAD DUP2 DUP2 GT ISZERO PUSH2 0x11FD JUMPI PUSH2 0x11FD PUSH2 0x1197 JUMP JUMPDEST PUSH1 0x40 MLOAD PUSH1 0x1F DUP3 ADD PUSH1 0x1F NOT SWAP1 DUP2 AND PUSH1 0x3F ADD AND DUP2 ADD SWAP1 DUP4 DUP3 GT DUP2 DUP4 LT OR ISZERO PUSH2 0x1225 JUMPI PUSH2 0x1225 PUSH2 0x1197 JUMP JUMPDEST DUP2 PUSH1 0x40 MSTORE DUP3 DUP2 MSTORE DUP8 PUSH1 0x20 DUP5 DUP8 ADD ADD GT ISZERO PUSH2 0x123E JUMPI PUSH1 0x0 DUP1 REVERT JUMPDEST DUP3 PUSH1 0x20 DUP7 ADD PUSH1 0x20 DUP4 ADD CALLDATACOPY PUSH1 0x0 SWAP3 DUP2 ADD PUSH1 0x20 ADD SWAP3 SWAP1 SWAP3 MSTORE POP SWAP6 SWAP5 POP POP POP POP POP JUMP JUMPDEST PUSH1 0x0 PUSH1 0x20 DUP3 DUP5 SUB SLT ISZERO PUSH2 0x1270 JUMPI PUSH1 0x0 DUP1 REVERT JUMPDEST PUSH2 0x695 DUP3 PUSH2 0x10FC JUMP JUMPDEST PUSH1 0x1 DUP2 DUP2 SHR SWAP1 DUP3 AND DUP1 PUSH2 0x128D JUMPI PUSH1 0x7F DUP3 AND SWAP2 POP JUMPDEST PUSH1 0x20 DUP3 LT DUP2 EQ ISZERO PUSH2 0x12AE JUMPI PUSH4 0x4E487B71 PUSH1 0xE0 SHL PUSH1 0x0 MSTORE PUSH1 0x22 PUSH1 0x4 MSTORE PUSH1 0x24 PUSH1 0x0 REVERT JUMPDEST POP SWAP2 SWAP1 POP JUMP JUMPDEST PUSH1 0x20 DUP1 DUP3 MSTORE PUSH1 0xD SWAP1 DUP3 ADD MSTORE PUSH13 0x32B93937B9102720A727A42AA1 PUSH1 0x99 SHL PUSH1 0x40 DUP3 ADD MSTORE PUSH1 0x60 ADD SWAP1 JUMP JUMPDEST PUSH4 0x4E487B71 PUSH1 0xE0 SHL PUSH1 0x0 MSTORE PUSH1 0x32 PUSH1 0x4 MSTORE PUSH1 0x24 PUSH1 0x0 REVERT JUMPDEST PUSH1 0x20 DUP1 DUP3 MSTORE PUSH1 0xB SWAP1 DUP3 ADD MSTORE PUSH11 0x195C9C9BDC88195E1A5CDD PUSH1 0xAA SHL PUSH1 0x40 DUP3 ADD MSTORE PUSH1 0x60 ADD SWAP1 JUMP JUMPDEST PUSH1 0x20 DUP1 DUP3 MSTORE PUSH1 0xB SWAP1 DUP3 ADD MSTORE PUSH11 0x32B93937B91037BBB732B9 PUSH1 0xA9 SHL PUSH1 0x40 DUP3 ADD MSTORE PUSH1 0x60 ADD SWAP1 JUMP JUMPDEST PUSH1 0x0 DUP5 MLOAD PUSH1 0x20 PUSH2 0x134E DUP3 DUP6 DUP4 DUP11 ADD PUSH2 0x108D JUMP JUMPDEST DUP6 MLOAD SWAP2 DUP5 ADD SWAP2 PUSH2 0x1361 DUP2 DUP5 DUP5 DUP11 ADD PUSH2 0x108D JUMP JUMPDEST DUP6 SLOAD SWAP3 ADD SWAP2 PUSH1 0x0 SWAP1 PUSH1 0x1 DUP2 DUP2 SHR SWAP1 DUP1 DUP4 AND DUP1 PUSH2 0x137E JUMPI PUSH1 0x7F DUP4 AND SWAP3 POP JUMPDEST DUP6 DUP4 LT DUP2 EQ ISZERO PUSH2 0x139C JUMPI PUSH4 0x4E487B71 PUSH1 0xE0 SHL DUP6 MSTORE PUSH1 0x22 PUSH1 0x4 MSTORE PUSH1 0x24 DUP6 REVERT JUMPDEST DUP1 DUP1 ISZERO PUSH2 0x13B0 JUMPI PUSH1 0x1 DUP2 EQ PUSH2 0x13C1 JUMPI PUSH2 0x13EE JUMP JUMPDEST PUSH1 0xFF NOT DUP6 AND DUP9 MSTORE DUP4 DUP9 ADD SWAP6 POP PUSH2 0x13EE JUMP JUMPDEST PUSH1 0x0 DUP12 DUP2 MSTORE PUSH1 0x20 SWAP1 KECCAK256 PUSH1 0x0 JUMPDEST DUP6 DUP2 LT ISZERO PUSH2 0x13E6 JUMPI DUP2 SLOAD DUP11 DUP3 ADD MSTORE SWAP1 DUP5 ADD SWAP1 DUP9 ADD PUSH2 0x13CD JUMP JUMPDEST POP POP DUP4 DUP9 ADD SWAP6 POP JUMPDEST POP SWAP4 SWAP12 SWAP11 POP POP POP POP POP POP POP POP POP POP POP JUMP JUMPDEST PUSH1 0x20 DUP1 DUP3 MSTORE PUSH1 0x8 SWAP1 DUP3 ADD MSTORE PUSH8 0x6572726F7220746F PUSH1 0xC0 SHL PUSH1 0x40 DUP3 ADD MSTORE PUSH1 0x60 ADD SWAP1 JUMP JUMPDEST PUSH4 0x4E487B71 PUSH1 0xE0 SHL PUSH1 0x0 MSTORE PUSH1 0x11 PUSH1 0x4 MSTORE PUSH1 0x24 PUSH1 0x0 REVERT JUMPDEST PUSH1 0x0 DUP2 PUSH2 0x1446 JUMPI PUSH2 0x1446 PUSH2 0x1421 JUMP JUMPDEST POP PUSH1 0x0 NOT ADD SWAP1 JUMP JUMPDEST PUSH1 0x0 PUSH1 0x0 NOT DUP3 EQ ISZERO PUSH2 0x1462 JUMPI PUSH2 0x1462 PUSH2 0x1421 JUMP JUMPDEST POP PUSH1 0x1 ADD SWAP1 JUMP JUMPDEST PUSH1 0x20 DUP1 DUP3 MSTORE PUSH1 0x14 SWAP1 DUP3 ADD MSTORE PUSH20 0x32B93937B91022A9219B9918A932B1B2B4BB32B9 PUSH1 0x61 SHL PUSH1 0x40 DUP3 ADD MSTORE PUSH1 0x60 ADD SWAP1 JUMP JUMPDEST PUSH4 0x4E487B71 PUSH1 0xE0 SHL PUSH1 0x0 MSTORE PUSH1 0x12 PUSH1 0x4 MSTORE PUSH1 0x24 PUSH1 0x0 REVERT JUMPDEST PUSH1 0x0 DUP3 PUSH2 0x14BC JUMPI PUSH2 0x14BC PUSH2 0x1497 JUMP JUMPDEST POP DIV SWAP1 JUMP JUMPDEST PUSH1 0x0 DUP3 DUP3 LT ISZERO PUSH2 0x14D3 JUMPI PUSH2 0x14D3 PUSH2 0x1421 JUMP JUMPDEST POP SUB SWAP1 JUMP JUMPDEST PUSH1 0x0 DUP3 PUSH2 0x14E7 JUMPI PUSH2 0x14E7 PUSH2 0x1497 JUMP JUMPDEST POP MOD SWAP1 JUMP JUMPDEST PUSH1 0x0 DUP3 NOT DUP3 GT ISZERO PUSH2 0x14FF JUMPI PUSH2 0x14FF PUSH2 0x1421 JUMP JUMPDEST POP ADD SWAP1 JUMP JUMPDEST PUSH4 0x4E487B71 PUSH1 0xE0 SHL PUSH1 0x0 MSTORE PUSH1 0x31 PUSH1 0x4 MSTORE PUSH1 0x24 PUSH1 0x0 REVERT JUMPDEST PUSH1 0x1 PUSH1 0x1 PUSH1 0xA0 SHL SUB DUP6 DUP2 AND DUP3 MSTORE DUP5 AND PUSH1 0x20 DUP3 ADD MSTORE PUSH1 0x40 DUP2 ADD DUP4 SWAP1 MSTORE PUSH1 0x80 PUSH1 0x60 DUP3 ADD DUP2 SWAP1 MSTORE PUSH1 0x0 SWAP1 PUSH2 0x154D SWAP1 DUP4 ADD DUP5 PUSH2 0x10BD JUMP JUMPDEST SWAP7 SWAP6 POP POP POP POP POP POP JUMP JUMPDEST PUSH1 0x0 PUSH1 0x20 DUP3 DUP5 SUB SLT ISZERO PUSH2 0x1569 JUMPI PUSH1 0x0 DUP1 REVERT JUMPDEST DUP2 MLOAD PUSH2 0x695 DUP2 PUSH2 0x105A JUMP INVALID LOG2 PUSH5 0x6970667358 0x22 SLT KECCAK256 PUSH24 0x4136BE5893606F2EA8DE2FE434057905D3EBDF2EE6903CEC JUMP 0xE2 BASEFEE DUP8 0xAD EQ PUSH29 0x64736F6C63430008090033000000000000000000000000000000000000 "},"methodIdentifiers":{"NANOHUB()":"4add9fb5","balanceOf(address)":"70a08231","baseExtension()":"c6682862","baseURI()":"6c0360eb","exist(uint256)":"4ebbc92a","mintNEWELF(address,uint256)":"5c5db5f5","name()":"06fdde03","owner()":"8da5cb5b","ownerOf(uint256)":"6352211e","renounceOwnership()":"715018a6","setBaseExtension(string)":"da3ef23f","setBaseURI(string)":"55f804b3","setNANOHUB(address)":"b4618022","supportsInterface(bytes4)":"01ffc9a7","symbol()":"95d89b41","tokenByIndex(uint256)":"4f6ccce7","tokenOfOwnerByIndex(address,uint256)":"2f745c59","tokenURI(uint256)":"c87b56dd","totalSupply()":"18160ddd","transferFrom(address,address,uint256)":"23b872dd","transferOwnership(address)":"f2fde38b"}}}}}