{
  "_format": "hh-sol-artifact-1",
  "contractName": "NEWELF",
  "sourceName": "contracts/NEWELF.sol",
  "abi": [
    {
      "inputs": [
        {
          "internalType": "string",
          "name": "uri",
          "type": "string"
        }
      ],
      "stateMutability": "nonpayable",
      "type": "constructor"
    },
    {
      "anonymous": false,
      "inputs": [
        {
          "indexed": true,
          "internalType": "address",
          "name": "previousOwner",
          "type": "address"
        },
        {
          "indexed": true,
          "internalType": "address",
          "name": "newOwner",
          "type": "address"
        }
      ],
      "name": "OwnershipTransferred",
      "type": "event"
    },
    {
      "anonymous": false,
      "inputs": [
        {
          "indexed": true,
          "internalType": "address",
          "name": "from",
          "type": "address"
        },
        {
          "indexed": true,
          "internalType": "address",
          "name": "to",
          "type": "address"
        },
        {
          "indexed": true,
          "internalType": "uint256",
          "name": "tokenId",
          "type": "uint256"
        }
      ],
      "name": "Transfer",
      "type": "event"
    },
    {
      "inputs": [],
      "name": "NANOHUB",
      "outputs": [
        {
          "internalType": "address",
          "name": "",
          "type": "address"
        }
      ],
      "stateMutability": "view",
      "type": "function"
    },
    {
      "inputs": [
        {
          "internalType": "address",
          "name": "owner",
          "type": "address"
        }
      ],
      "name": "balanceOf",
      "outputs": [
        {
          "internalType": "uint256",
          "name": "",
          "type": "uint256"
        }
      ],
      "stateMutability": "view",
      "type": "function"
    },
    {
      "inputs": [],
      "name": "baseExtension",
      "outputs": [
        {
          "internalType": "string",
          "name": "",
          "type": "string"
        }
      ],
      "stateMutability": "view",
      "type": "function"
    },
    {
      "inputs": [],
      "name": "baseURI",
      "outputs": [
        {
          "internalType": "string",
          "name": "",
          "type": "string"
        }
      ],
      "stateMutability": "view",
      "type": "function"
    },
    {
      "inputs": [
        {
          "internalType": "uint256",
          "name": "tokenId",
          "type": "uint256"
        }
      ],
      "name": "exist",
      "outputs": [
        {
          "internalType": "bool",
          "name": "",
          "type": "bool"
        }
      ],
      "stateMutability": "view",
      "type": "function"
    },
    {
      "inputs": [
        {
          "internalType": "address",
          "name": "to",
          "type": "address"
        },
        {
          "internalType": "uint256",
          "name": "tokenId",
          "type": "uint256"
        }
      ],
      "name": "mintNEWELF",
      "outputs": [],
      "stateMutability": "nonpayable",
      "type": "function"
    },
    {
      "inputs": [],
      "name": "name",
      "outputs": [
        {
          "internalType": "string",
          "name": "",
          "type": "string"
        }
      ],
      "stateMutability": "view",
      "type": "function"
    },
    {
      "inputs": [],
      "name": "owner",
      "outputs": [
        {
          "internalType": "address",
          "name": "",
          "type": "address"
        }
      ],
      "stateMutability": "view",
      "type": "function"
    },
    {
      "inputs": [
        {
          "internalType": "uint256",
          "name": "id",
          "type": "uint256"
        }
      ],
      "name": "ownerOf",
      "outputs": [
        {
          "internalType": "address",
          "name": "",
          "type": "address"
        }
      ],
      "stateMutability": "view",
      "type": "function"
    },
    {
      "inputs": [],
      "name": "renounceOwnership",
      "outputs": [],
      "stateMutability": "nonpayable",
      "type": "function"
    },
    {
      "inputs": [
        {
          "internalType": "string",
          "name": "_newBaseExtension",
          "type": "string"
        }
      ],
      "name": "setBaseExtension",
      "outputs": [],
      "stateMutability": "nonpayable",
      "type": "function"
    },
    {
      "inputs": [
        {
          "internalType": "string",
          "name": "_tokenBaseURI",
          "type": "string"
        }
      ],
      "name": "setBaseURI",
      "outputs": [],
      "stateMutability": "nonpayable",
      "type": "function"
    },
    {
      "inputs": [
        {
          "internalType": "address",
          "name": "_NANOHUB",
          "type": "address"
        }
      ],
      "name": "setNANOHUB",
      "outputs": [],
      "stateMutability": "nonpayable",
      "type": "function"
    },
    {
      "inputs": [
        {
          "internalType": "bytes4",
          "name": "interfaceId",
          "type": "bytes4"
        }
      ],
      "name": "supportsInterface",
      "outputs": [
        {
          "internalType": "bool",
          "name": "",
          "type": "bool"
        }
      ],
      "stateMutability": "pure",
      "type": "function"
    },
    {
      "inputs": [],
      "name": "symbol",
      "outputs": [
        {
          "internalType": "string",
          "name": "",
          "type": "string"
        }
      ],
      "stateMutability": "view",
      "type": "function"
    },
    {
      "inputs": [
        {
          "internalType": "uint256",
          "name": "index",
          "type": "uint256"
        }
      ],
      "name": "tokenByIndex",
      "outputs": [
        {
          "internalType": "uint256",
          "name": "",
          "type": "uint256"
        }
      ],
      "stateMutability": "view",
      "type": "function"
    },
    {
      "inputs": [
        {
          "internalType": "address",
          "name": "owner",
          "type": "address"
        },
        {
          "internalType": "uint256",
          "name": "index",
          "type": "uint256"
        }
      ],
      "name": "tokenOfOwnerByIndex",
      "outputs": [
        {
          "internalType": "uint256",
          "name": "",
          "type": "uint256"
        }
      ],
      "stateMutability": "view",
      "type": "function"
    },
    {
      "inputs": [
        {
          "internalType": "uint256",
          "name": "id",
          "type": "uint256"
        }
      ],
      "name": "tokenURI",
      "outputs": [
        {
          "internalType": "string",
          "name": "",
          "type": "string"
        }
      ],
      "stateMutability": "view",
      "type": "function"
    },
    {
      "inputs": [],
      "name": "totalSupply",
      "outputs": [
        {
          "internalType": "uint256",
          "name": "",
          "type": "uint256"
        }
      ],
      "stateMutability": "view",
      "type": "function"
    },
    {
      "inputs": [
        {
          "internalType": "address",
          "name": "from",
          "type": "address"
        },
        {
          "internalType": "address",
          "name": "to",
          "type": "address"
        },
        {
          "internalType": "uint256",
          "name": "tokenId",
          "type": "uint256"
        }
      ],
      "name": "transferFrom",
      "outputs": [],
      "stateMutability": "nonpayable",
      "type": "function"
    },
    {
      "inputs": [
        {
          "internalType": "address",
          "name": "newOwner",
          "type": "address"
        }
      ],
      "name": "transferOwnership",
      "outputs": [],
      "stateMutability": "nonpayable",
      "type": "function"
    }
  ],
  "bytecode": "0x60c0604052600360808190526222a62360e91b60a090815262000024919081620001b4565b506040805180820190915260068082526522a62327a7ad60d11b60209092019182526200005491600491620001b4565b5060408051808201909152600580825264173539b7b760d91b60209092019182526200008391600691620001b4565b50600060075561012f600e553480156200009c57600080fd5b506040516200194338038062001943833981016040819052620000bf9162000270565b620000ca33620000e0565b60018055620000d98162000130565b5062000389565b600080546001600160a01b038381166001600160a01b0319831681178455604051919092169283917f8be0079c531659141344cd1fd0a4f28419497f9722a3daafe3b4186f6b6457e09190a35050565b6200013a62000153565b80516200014f906005906020840190620001b4565b5050565b6000546001600160a01b03163314620001b25760405162461bcd60e51b815260206004820181905260248201527f4f776e61626c653a2063616c6c6572206973206e6f7420746865206f776e6572604482015260640160405180910390fd5b565b828054620001c2906200034c565b90600052602060002090601f016020900481019282620001e6576000855562000231565b82601f106200020157805160ff191683800117855562000231565b8280016001018555821562000231579182015b828111156200023157825182559160200191906001019062000214565b506200023f92915062000243565b5090565b5b808211156200023f576000815560010162000244565b634e487b7160e01b600052604160045260246000fd5b600060208083850312156200028457600080fd5b82516001600160401b03808211156200029c57600080fd5b818501915085601f830112620002b157600080fd5b815181811115620002c657620002c66200025a565b604051601f8201601f19908116603f01168101908382118183101715620002f157620002f16200025a565b8160405282815288868487010111156200030a57600080fd5b600093505b828410156200032e57848401860151818501870152928501926200030f565b82841115620003405760008684830101525b98975050505050505050565b600181811c908216806200036157607f821691505b602082108114156200038357634e487b7160e01b600052602260045260246000fd5b50919050565b6115aa80620003996000396000f3fe608060405234801561001057600080fd5b50600436106101375760003560e01c80636352211e116100b857806395d89b411161007c57806395d89b4114610276578063b46180221461027e578063c668286214610291578063c87b56dd14610299578063da3ef23f146102ac578063f2fde38b146102bf57600080fd5b80636352211e1461022f5780636c0360eb1461024257806370a082311461024a578063715018a61461025d5780638da5cb5b1461026557600080fd5b80634add9fb5116100ff5780634add9fb5146101b85780634ebbc92a146101e35780634f6ccce7146101f657806355f804b3146102095780635c5db5f51461021c57600080fd5b806301ffc9a71461013c57806306fdde031461016457806318160ddd1461017957806323b872dd146101905780632f745c59146101a5575b600080fd5b61014f61014a366004611070565b6102d2565b60405190151581526020015b60405180910390f35b61016c610309565b60405161015b91906110e9565b61018260075481565b60405190815260200161015b565b6101a361019e366004611118565b610397565b005b6101826101b3366004611154565b6103da565b6002546101cb906001600160a01b031681565b6040516001600160a01b03909116815260200161015b565b61014f6101f136600461117e565b61044e565b61018261020436600461117e565b61046b565b6101a36102173660046111ad565b6104d7565b6101a361022a366004611154565b6104f6565b6101cb61023d36600461117e565b61052a565b61016c61056d565b61018261025836600461125e565b61057a565b6101a36105be565b6000546001600160a01b03166101cb565b61016c6105d2565b6101a361028c36600461125e565b6105df565b61016c610609565b61016c6102a736600461117e565b610616565b6101a36102ba3660046111ad565b61069c565b6101a36102cd36600461125e565b6106b7565b60006380ac58cd60e01b6001600160e01b0319831614806103035750635b5e139f60e01b6001600160e01b03198316145b92915050565b6004805461031690611279565b80601f016020809104026020016040519081016040528092919081815260200182805461034290611279565b801561038f5780601f106103645761010080835404028352916020019161038f565b820191906000526020600020905b81548152906001019060200180831161037257829003601f168201915b505050505081565b6002546001600160a01b031633146103ca5760405162461bcd60e51b81526004016103c1906112b4565b60405180910390fd5b6103d5838383610730565b505050565b60006103e58361057a565b82106104255760405162461bcd60e51b815260206004820152600f60248201526e32b93937b9103130b630b731b2a7b360891b60448201526064016103c1565b506001600160a01b03919091166000908152600d60209081526040808320938352929052205490565b6000908152600860205260409020546001600160a01b0316151590565b600060075482106104b25760405162461bcd60e51b81526020600482015260116024820152706572726f7220746f74616c537570706c7960781b60448201526064016103c1565b600a82815481106104c5576104c56112db565b90600052602060002001549050919050565b6104df610913565b80516104f2906005906020840190610fc1565b5050565b6002546001600160a01b031633146105205760405162461bcd60e51b81526004016103c1906112b4565b6104f2828261096d565b60006105358261044e565b6105515760405162461bcd60e51b81526004016103c1906112f1565b506000908152600860205260409020546001600160a01b031690565b6005805461031690611279565b60006001600160a01b0382166105a25760405162461bcd60e51b81526004016103c190611316565b506001600160a01b031660009081526009602052604090205490565b6105c6610913565b6105d06000610aff565b565b6003805461031690611279565b6105e7610913565b600280546001600160a01b0319166001600160a01b0392909216919091179055565b6006805461031690611279565b60606106218261044e565b61063d5760405162461bcd60e51b81526004016103c1906112f1565b6000610647610b4f565b905060008151116106675760405180602001604052806000815250610695565b8061067184610be1565b60066040516020016106859392919061133b565b6040516020818303038152906040525b9392505050565b6106a4610913565b80516104f2906006906020840190610fc1565b6106bf610913565b6001600160a01b0381166107245760405162461bcd60e51b815260206004820152602660248201527f4f776e61626c653a206e6577206f776e657220697320746865207a65726f206160448201526564647265737360d01b60648201526084016103c1565b61072d81610aff565b50565b6107398161044e565b6107555760405162461bcd60e51b81526004016103c1906112f1565b6001600160a01b03821661077b5760405162461bcd60e51b81526004016103c1906113ff565b6107848161052a565b6001600160a01b0316836001600160a01b0316146107b45760405162461bcd60e51b81526004016103c190611316565b6001600160a01b0383166107d0576107cb81610ce7565b6107f3565b816001600160a01b0316836001600160a01b0316146107f3576107f38382610d2b565b6001600160a01b03821661080f5761080a81610dc8565b610832565b826001600160a01b0316826001600160a01b031614610832576108328282610e77565b6001600160a01b038316600090815260096020526040812080549161085683611437565b90915550506001600160a01b038216600090815260096020526040812080549161087f8361144e565b909155505060008181526008602052604080822080546001600160a01b0319166001600160a01b0386811691821790925591518493918716917fddf252ad1be2c89b69c2b068fc378daa952ba7f163c4a11628f55a4df523b3ef91a46108f76000838360405180602001604052806000815250610ebb565b6103d55760405162461bcd60e51b81526004016103c190611469565b6000546001600160a01b031633146105d05760405162461bcd60e51b815260206004820181905260248201527f4f776e61626c653a2063616c6c6572206973206e6f7420746865206f776e657260448201526064016103c1565b60006001600160a01b0383166109955760405162461bcd60e51b81526004016103c1906113ff565b6000828152600860205260409020546001600160a01b0316156109ca5760405162461bcd60e51b81526004016103c190611316565b6001600160a01b0381166109e6576109e182610ce7565b610a09565b826001600160a01b0316816001600160a01b031614610a0957610a098183610d2b565b6001600160a01b038316610a2557610a2082610dc8565b610a48565b806001600160a01b0316836001600160a01b031614610a4857610a488383610e77565b6001600160a01b0383166000908152600960205260408120805491610a6c8361144e565b9091555050600082815260086020526040812080546001600160a01b0319166001600160a01b0386161790556007805491610aa68361144e565b909155505060405182906001600160a01b038516906000907fddf252ad1be2c89b69c2b068fc378daa952ba7f163c4a11628f55a4df523b3ef908290a46108f76000848460405180602001604052806000815250610ebb565b600080546001600160a01b038381166001600160a01b0319831681178455604051919092169283917f8be0079c531659141344cd1fd0a4f28419497f9722a3daafe3b4186f6b6457e09190a35050565b606060058054610b5e90611279565b80601f0160208091040260200160405190810160405280929190818152602001828054610b8a90611279565b8015610bd75780601f10610bac57610100808354040283529160200191610bd7565b820191906000526020600020905b815481529060010190602001808311610bba57829003601f168201915b5050505050905090565b606081610c055750506040805180820190915260018152600360fc1b602082015290565b6000825b8015610c2f5781610c198161144e565b9250610c289050600a826114ad565b9050610c09565b60008267ffffffffffffffff811115610c4a57610c4a611197565b6040519080825280601f01601f191660200182016040528015610c74576020820181803683370190505b5090505b8415610cdf57610c896001846114c1565b9250610c96600a866114d8565b610ca19060306114ec565b60f81b818481518110610cb657610cb66112db565b60200101906001600160f81b031916908160001a905350610cd8600a866114ad565b9450610c78565b949350505050565b600a80546000838152600b60205260408120829055600182018355919091527fc65a7bb8d6351c1cf70c95a316cc6a92839c986682d98bc35f958f4883f9d2a80155565b60006001610d388461057a565b610d4291906114c1565b6000838152600c6020526040902054909150808214610d95576001600160a01b0384166000908152600d602090815260408083208584528252808320548484528184208190558352600c90915290208190555b506000918252600c602090815260408084208490556001600160a01b039094168352600d81528383209183525290812055565b600a54600090610dda906001906114c1565b6000838152600b6020526040812054600a8054939450909284908110610e0257610e026112db565b9060005260206000200154905080600a8381548110610e2357610e236112db565b6000918252602080832090910192909255828152600b9091526040808220849055858252812055600a805480610e5b57610e5b611504565b6001900381819060005260206000200160009055905550505050565b6000610e828361057a565b6001600160a01b039093166000908152600d602090815260408083208684528252808320859055938252600c9052919091209190915550565b6000833b8015610fb757604051630a85bd0160e11b81526001600160a01b0386169063150b7a0290610ef79033908a908990899060040161151a565b602060405180830381600087803b158015610f1157600080fd5b505af1925050508015610f41575060408051601f3d908101601f19168201909252610f3e91810190611557565b60015b610f9b573d808015610f6f576040519150601f19603f3d011682016040523d82523d6000602084013e610f74565b606091505b508051610f935760405162461bcd60e51b81526004016103c190611469565b805181602001fd5b6001600160e01b031916630a85bd0160e11b149150610cdf9050565b6001915050610cdf565b828054610fcd90611279565b90600052602060002090601f016020900481019282610fef5760008555611035565b82601f1061100857805160ff1916838001178555611035565b82800160010185558215611035579182015b8281111561103557825182559160200191906001019061101a565b50611041929150611045565b5090565b5b808211156110415760008155600101611046565b6001600160e01b03198116811461072d57600080fd5b60006020828403121561108257600080fd5b81356106958161105a565b60005b838110156110a8578181015183820152602001611090565b838111156110b7576000848401525b50505050565b600081518084526110d581602086016020860161108d565b601f01601f19169290920160200192915050565b60208152600061069560208301846110bd565b80356001600160a01b038116811461111357600080fd5b919050565b60008060006060848603121561112d57600080fd5b611136846110fc565b9250611144602085016110fc565b9150604084013590509250925092565b6000806040838503121561116757600080fd5b611170836110fc565b946020939093013593505050565b60006020828403121561119057600080fd5b5035919050565b634e487b7160e01b600052604160045260246000fd5b6000602082840312156111bf57600080fd5b813567ffffffffffffffff808211156111d757600080fd5b818401915084601f8301126111eb57600080fd5b8135818111156111fd576111fd611197565b604051601f8201601f19908116603f0116810190838211818310171561122557611225611197565b8160405282815287602084870101111561123e57600080fd5b826020860160208301376000928101602001929092525095945050505050565b60006020828403121561127057600080fd5b610695826110fc565b600181811c9082168061128d57607f821691505b602082108114156112ae57634e487b7160e01b600052602260045260246000fd5b50919050565b6020808252600d908201526c32b93937b9102720a727a42aa160991b604082015260600190565b634e487b7160e01b600052603260045260246000fd5b6020808252600b908201526a195c9c9bdc88195e1a5cdd60aa1b604082015260600190565b6020808252600b908201526a32b93937b91037bbb732b960a91b604082015260600190565b60008451602061134e8285838a0161108d565b8551918401916113618184848a0161108d565b8554920191600090600181811c908083168061137e57607f831692505b85831081141561139c57634e487b7160e01b85526022600452602485fd5b8080156113b057600181146113c1576113ee565b60ff198516885283880195506113ee565b60008b81526020902060005b858110156113e65781548a8201529084019088016113cd565b505083880195505b50939b9a5050505050505050505050565b6020808252600890820152676572726f7220746f60c01b604082015260600190565b634e487b7160e01b600052601160045260246000fd5b60008161144657611446611421565b506000190190565b600060001982141561146257611462611421565b5060010190565b60208082526014908201527332b93937b91022a9219b9918a932b1b2b4bb32b960611b604082015260600190565b634e487b7160e01b600052601260045260246000fd5b6000826114bc576114bc611497565b500490565b6000828210156114d3576114d3611421565b500390565b6000826114e7576114e7611497565b500690565b600082198211156114ff576114ff611421565b500190565b634e487b7160e01b600052603160045260246000fd5b6001600160a01b038581168252841660208201526040810183905260806060820181905260009061154d908301846110bd565b9695505050505050565b60006020828403121561156957600080fd5b81516106958161105a56fea2646970667358221220774136be5893606f2ea8de2fe434057905d3ebdf2ee6903cec56e24887ad147c64736f6c63430008090033",
  "linkReferences": {},
  "deployedLinkReferences": {}
}