{
  "_format": "hh-sol-artifact-1",
  "contractName": "NANOHUB",
  "sourceName": "contracts/NANOHUB.sol",
  "abi": [
    {
      "inputs": [
        {
          "internalType": "address",
          "name": "ELFOOZ",
          "type": "address"
        },
        {
          "internalType": "address",
          "name": "NEWELF",
          "type": "address"
        }
      ],
      "stateMutability": "nonpayable",
      "type": "constructor"
    },
    {
      "anonymous": false,
      "inputs": [
        {
          "indexed": true,
          "internalType": "address",
          "name": "previousOwner",
          "type": "address"
        },
        {
          "indexed": true,
          "internalType": "address",
          "name": "newOwner",
          "type": "address"
        }
      ],
      "name": "OwnershipTransferred",
      "type": "event"
    },
    {
      "inputs": [
        {
          "internalType": "uint256[]",
          "name": "tokenIds",
          "type": "uint256[]"
        }
      ],
      "name": "batchMintNEWELF",
      "outputs": [],
      "stateMutability": "nonpayable",
      "type": "function"
    },
    {
      "inputs": [
        {
          "internalType": "uint256[]",
          "name": "tokenIds",
          "type": "uint256[]"
        }
      ],
      "name": "batchRecallNEWELF",
      "outputs": [],
      "stateMutability": "nonpayable",
      "type": "function"
    },
    {
      "inputs": [
        {
          "internalType": "uint256",
          "name": "tokenId",
          "type": "uint256"
        }
      ],
      "name": "mintNEWELF",
      "outputs": [],
      "stateMutability": "nonpayable",
      "type": "function"
    },
    {
      "inputs": [],
      "name": "owner",
      "outputs": [
        {
          "internalType": "address",
          "name": "",
          "type": "address"
        }
      ],
      "stateMutability": "view",
      "type": "function"
    },
    {
      "inputs": [
        {
          "internalType": "uint256",
          "name": "tokenId",
          "type": "uint256"
        }
      ],
      "name": "recallNEWELF",
      "outputs": [],
      "stateMutability": "nonpayable",
      "type": "function"
    },
    {
      "inputs": [],
      "name": "renounceOwnership",
      "outputs": [],
      "stateMutability": "nonpayable",
      "type": "function"
    },
    {
      "inputs": [
        {
          "internalType": "address",
          "name": "to",
          "type": "address"
        },
        {
          "internalType": "uint256",
          "name": "tokenId",
          "type": "uint256"
        }
      ],
      "name": "transferNEWELF",
      "outputs": [],
      "stateMutability": "nonpayable",
      "type": "function"
    },
    {
      "inputs": [
        {
          "internalType": "address",
          "name": "newOwner",
          "type": "address"
        }
      ],
      "name": "transferOwnership",
      "outputs": [],
      "stateMutability": "nonpayable",
      "type": "function"
    }
  ],
  "bytecode": "0x608060405234801561001057600080fd5b5060405161132d38038061132d83398101604081905261002f916100d5565b61003833610069565b600180546001600160a01b039384166001600160a01b03199182161790915560028054929093169116179055610108565b600080546001600160a01b038381166001600160a01b0319831681178455604051919092169283917f8be0079c531659141344cd1fd0a4f28419497f9722a3daafe3b4186f6b6457e09190a35050565b80516001600160a01b03811681146100d057600080fd5b919050565b600080604083850312156100e857600080fd5b6100f1836100b9565b91506100ff602084016100b9565b90509250929050565b611216806101176000396000f3fe608060405234801561001057600080fd5b50600436106100785760003560e01c80632a2ffb741461007d57806346ba9fad14610092578063715018a6146100a55780637760a743146100ad5780638da5cb5b146100c0578063cc4ab67e146100e2578063f2fde38b146100f5578063fa9051bb14610108575b600080fd5b61009061008b366004610f09565b61011b565b005b6100906100a0366004610f37565b6103fd565b610090610575565b6100906100bb366004610f79565b610589565b6000546001600160a01b03166040516100d99190611037565b60405180910390f35b6100906100f0366004610f79565b61089a565b61009061010336600461104b565b610c3a565b610090610116366004610f09565b610cb3565b60025460405163275de49560e11b8152600481018390526001600160a01b0390911690634ebbc92a9060240160206040518083038186803b15801561015f57600080fd5b505afa158015610173573d6000803e3d6000fd5b505050506040513d601f19601f82011682018060405250810190610197919061106f565b6101bc5760405162461bcd60e51b81526004016101b390611091565b60405180910390fd5b6002546040516331a9108f60e11b8152600481018390526001600160a01b0390911690636352211e9060240160206040518083038186803b15801561020057600080fd5b505afa158015610214573d6000803e3d6000fd5b505050506040513d601f19601f8201168201806040525081019061023891906110bd565b6001600160a01b0316336001600160a01b031614156102695760405162461bcd60e51b81526004016101b3906110da565b6001546040516331a9108f60e11b8152600481018390526001600160a01b0390911690636352211e9060240160206040518083038186803b1580156102ad57600080fd5b505afa1580156102c1573d6000803e3d6000fd5b505050506040513d601f19601f820116820180604052508101906102e591906110bd565b6001600160a01b0316336001600160a01b0316146103155760405162461bcd60e51b81526004016101b390611106565b6002546040516331a9108f60e11b8152600481018390526000916001600160a01b031690636352211e9060240160206040518083038186803b15801561035a57600080fd5b505afa15801561036e573d6000803e3d6000fd5b505050506040513d601f19601f8201168201806040525081019061039291906110bd565b6002546040516323b872dd60e01b81529192506001600160a01b0316906323b872dd906103c790849033908790600401611132565b600060405180830381600087803b1580156103e157600080fd5b505af11580156103f5573d6000803e3d6000fd5b505050505050565b6002546040516331a9108f60e11b8152600481018390526001600160a01b0390911690636352211e9060240160206040518083038186803b15801561044157600080fd5b505afa158015610455573d6000803e3d6000fd5b505050506040513d601f19601f8201168201806040525081019061047991906110bd565b6001600160a01b0316336001600160a01b0316146104a95760405162461bcd60e51b81526004016101b3906110da565b60025460405163275de49560e11b8152600481018390526001600160a01b0390911690634ebbc92a9060240160206040518083038186803b1580156104ed57600080fd5b505afa158015610501573d6000803e3d6000fd5b505050506040513d601f19601f82011682018060405250810190610525919061106f565b6105415760405162461bcd60e51b81526004016101b390611091565b6002546040516323b872dd60e01b81526001600160a01b03909116906323b872dd906103c790339086908690600401611132565b61057d610e5f565b6105876000610eb9565b565b6001546040516370a0823160e01b815260009182916001600160a01b03909116906370a08231906105be903390600401611037565b60206040518083038186803b1580156105d657600080fd5b505afa1580156105ea573d6000803e3d6000fd5b505050506040513d601f19601f8201168201806040525081019061060e9190611156565b9050825181146106305760405162461bcd60e51b81526004016101b39061116f565b8082101561089557600083838151811061064c5761064c6111a1565b602090810291909101015160025460405163275de49560e11b8152600481018390529192506001600160a01b031690634ebbc92a9060240160206040518083038186803b15801561069c57600080fd5b505afa1580156106b0573d6000803e3d6000fd5b505050506040513d601f19601f820116820180604052508101906106d4919061106f565b6108825760025460405163275de49560e11b8152600481018390526001600160a01b0390911690634ebbc92a9060240160206040518083038186803b15801561071c57600080fd5b505afa158015610730573d6000803e3d6000fd5b505050506040513d601f19601f82011682018060405250810190610754919061106f565b156107715760405162461bcd60e51b81526004016101b390611091565b6001546040516331a9108f60e11b8152600481018390526001600160a01b0390911690636352211e9060240160206040518083038186803b1580156107b557600080fd5b505afa1580156107c9573d6000803e3d6000fd5b505050506040513d601f19601f820116820180604052508101906107ed91906110bd565b6001600160a01b0316336001600160a01b03161461081d5760405162461bcd60e51b81526004016101b390611106565b600254604051635c5db5f560e01b8152336004820152602481018390526001600160a01b0390911690635c5db5f590604401600060405180830381600087803b15801561086957600080fd5b505af115801561087d573d6000803e3d6000fd5b505050505b8261088c816111b7565b93505050610630565b505050565b6001546040516370a0823160e01b815260009182916001600160a01b03909116906370a08231906108cf903390600401611037565b60206040518083038186803b1580156108e757600080fd5b505afa1580156108fb573d6000803e3d6000fd5b505050506040513d601f19601f8201168201806040525081019061091f9190611156565b9050825181146109415760405162461bcd60e51b81526004016101b39061116f565b8082101561089557600083838151811061095d5761095d6111a1565b60209081029190910101516001546040516331a9108f60e11b8152600481018390529192506001600160a01b031690636352211e9060240160206040518083038186803b1580156109ad57600080fd5b505afa1580156109c1573d6000803e3d6000fd5b505050506040513d601f19601f820116820180604052508101906109e591906110bd565b6001600160a01b0316336001600160a01b031614610a155760405162461bcd60e51b81526004016101b390611106565b60025460405163275de49560e11b8152600481018390526001600160a01b0390911690634ebbc92a9060240160206040518083038186803b158015610a5957600080fd5b505afa158015610a6d573d6000803e3d6000fd5b505050506040513d601f19601f82011682018060405250810190610a91919061106f565b610aad5760405162461bcd60e51b81526004016101b390611091565b6002546040516331a9108f60e11b8152600481018390526001600160a01b0390911690636352211e9060240160206040518083038186803b158015610af157600080fd5b505afa158015610b05573d6000803e3d6000fd5b505050506040513d601f19601f82011682018060405250810190610b2991906110bd565b6001600160a01b0316336001600160a01b031614610c27576002546040516331a9108f60e11b8152600481018390526000916001600160a01b031690636352211e9060240160206040518083038186803b158015610b8657600080fd5b505afa158015610b9a573d6000803e3d6000fd5b505050506040513d601f19601f82011682018060405250810190610bbe91906110bd565b6002546040516323b872dd60e01b81529192506001600160a01b0316906323b872dd90610bf390849033908790600401611132565b600060405180830381600087803b158015610c0d57600080fd5b505af1158015610c21573d6000803e3d6000fd5b50505050505b82610c31816111b7565b93505050610941565b610c42610e5f565b6001600160a01b038116610ca75760405162461bcd60e51b815260206004820152602660248201527f4f776e61626c653a206e6577206f776e657220697320746865207a65726f206160448201526564647265737360d01b60648201526084016101b3565b610cb081610eb9565b50565b60025460405163275de49560e11b8152600481018390526001600160a01b0390911690634ebbc92a9060240160206040518083038186803b158015610cf757600080fd5b505afa158015610d0b573d6000803e3d6000fd5b505050506040513d601f19601f82011682018060405250810190610d2f919061106f565b15610d4c5760405162461bcd60e51b81526004016101b390611091565b6001546040516331a9108f60e11b8152600481018390526001600160a01b0390911690636352211e9060240160206040518083038186803b158015610d9057600080fd5b505afa158015610da4573d6000803e3d6000fd5b505050506040513d601f19601f82011682018060405250810190610dc891906110bd565b6001600160a01b0316336001600160a01b031614610df85760405162461bcd60e51b81526004016101b390611106565b600254604051635c5db5f560e01b8152336004820152602481018390526001600160a01b0390911690635c5db5f590604401600060405180830381600087803b158015610e4457600080fd5b505af1158015610e58573d6000803e3d6000fd5b5050505050565b6000546001600160a01b031633146105875760405162461bcd60e51b815260206004820181905260248201527f4f776e61626c653a2063616c6c6572206973206e6f7420746865206f776e657260448201526064016101b3565b600080546001600160a01b038381166001600160a01b0319831681178455604051919092169283917f8be0079c531659141344cd1fd0a4f28419497f9722a3daafe3b4186f6b6457e09190a35050565b600060208284031215610f1b57600080fd5b5035919050565b6001600160a01b0381168114610cb057600080fd5b60008060408385031215610f4a57600080fd5b8235610f5581610f22565b946020939093013593505050565b634e487b7160e01b600052604160045260246000fd5b60006020808385031215610f8c57600080fd5b823567ffffffffffffffff80821115610fa457600080fd5b818501915085601f830112610fb857600080fd5b813581811115610fca57610fca610f63565b8060051b604051601f19603f83011681018181108582111715610fef57610fef610f63565b60405291825284820192508381018501918883111561100d57600080fd5b938501935b8285101561102b57843584529385019392850192611012565b98975050505050505050565b6001600160a01b0391909116815260200190565b60006020828403121561105d57600080fd5b813561106881610f22565b9392505050565b60006020828403121561108157600080fd5b8151801515811461106857600080fd5b602080825260129082015271195c9c9bdc88139155d153118b995e1a5cdd60721b604082015260600190565b6000602082840312156110cf57600080fd5b815161106881610f22565b60208082526012908201527132b93937b9102722aba2a6231737bbb732b960711b604082015260600190565b60208082526012908201527132b93937b91022a62327a7ad1737bbb732b960711b604082015260600190565b6001600160a01b039384168152919092166020820152604081019190915260600190565b60006020828403121561116857600080fd5b5051919050565b602080825260189082015277195c9c9bdc8818985b185b98d9481a5cc81a5b9d985b1a5960421b604082015260600190565b634e487b7160e01b600052603260045260246000fd5b60006000198214156111d957634e487b7160e01b600052601160045260246000fd5b506001019056fea264697066735822122064d29d8778aa51982277dcadfd1911ba088b51c126b7520575d216b6da70d66764736f6c63430008090033",
  "linkReferences": {},
  "deployedLinkReferences": {}
}