{
  "_format": "hh-sol-artifact-1",
  "contractName": "ERC721A",
  "sourceName": "erc721a/contracts/ERC721A.sol",
  "abi": [
    {
      "inputs": [
        {
          "internalType": "string",
          "name": "name_",
          "type": "string"
        },
        {
          "internalType": "string",
          "name": "symbol_",
          "type": "string"
        }
      ],
      "stateMutability": "nonpayable",
      "type": "constructor"
    },
    {
      "inputs": [],
      "name": "ApprovalCallerNotOwnerNorApproved",
      "type": "error"
    },
    {
      "inputs": [],
      "name": "ApprovalQueryForNonexistentToken",
      "type": "error"
    },
    {
      "inputs": [],
      "name": "BalanceQueryForZeroAddress",
      "type": "error"
    },
    {
      "inputs": [],
      "name": "MintERC2309QuantityExceedsLimit",
      "type": "error"
    },
    {
      "inputs": [],
      "name": "MintToZeroAddress",
      "type": "error"
    },
    {
      "inputs": [],
      "name": "MintZeroQuantity",
      "type": "error"
    },
    {
      "inputs": [],
      "name": "OwnerQueryForNonexistentToken",
      "type": "error"
    },
    {
      "inputs": [],
      "name": "OwnershipNotInitializedForExtraData",
      "type": "error"
    },
    {
      "inputs": [],
      "name": "TransferCallerNotOwnerNorApproved",
      "type": "error"
    },
    {
      "inputs": [],
      "name": "TransferFromIncorrectOwner",
      "type": "error"
    },
    {
      "inputs": [],
      "name": "TransferToNonERC721ReceiverImplementer",
      "type": "error"
    },
    {
      "inputs": [],
      "name": "TransferToZeroAddress",
      "type": "error"
    },
    {
      "inputs": [],
      "name": "URIQueryForNonexistentToken",
      "type": "error"
    },
    {
      "anonymous": false,
      "inputs": [
        {
          "indexed": true,
          "internalType": "address",
          "name": "owner",
          "type": "address"
        },
        {
          "indexed": true,
          "internalType": "address",
          "name": "approved",
          "type": "address"
        },
        {
          "indexed": true,
          "internalType": "uint256",
          "name": "tokenId",
          "type": "uint256"
        }
      ],
      "name": "Approval",
      "type": "event"
    },
    {
      "anonymous": false,
      "inputs": [
        {
          "indexed": true,
          "internalType": "address",
          "name": "owner",
          "type": "address"
        },
        {
          "indexed": true,
          "internalType": "address",
          "name": "operator",
          "type": "address"
        },
        {
          "indexed": false,
          "internalType": "bool",
          "name": "approved",
          "type": "bool"
        }
      ],
      "name": "ApprovalForAll",
      "type": "event"
    },
    {
      "anonymous": false,
      "inputs": [
        {
          "indexed": true,
          "internalType": "uint256",
          "name": "fromTokenId",
          "type": "uint256"
        },
        {
          "indexed": false,
          "internalType": "uint256",
          "name": "toTokenId",
          "type": "uint256"
        },
        {
          "indexed": true,
          "internalType": "address",
          "name": "from",
          "type": "address"
        },
        {
          "indexed": true,
          "internalType": "address",
          "name": "to",
          "type": "address"
        }
      ],
      "name": "ConsecutiveTransfer",
      "type": "event"
    },
    {
      "anonymous": false,
      "inputs": [
        {
          "indexed": true,
          "internalType": "address",
          "name": "from",
          "type": "address"
        },
        {
          "indexed": true,
          "internalType": "address",
          "name": "to",
          "type": "address"
        },
        {
          "indexed": true,
          "internalType": "uint256",
          "name": "tokenId",
          "type": "uint256"
        }
      ],
      "name": "Transfer",
      "type": "event"
    },
    {
      "inputs": [
        {
          "internalType": "address",
          "name": "to",
          "type": "address"
        },
        {
          "internalType": "uint256",
          "name": "tokenId",
          "type": "uint256"
        }
      ],
      "name": "approve",
      "outputs": [],
      "stateMutability": "payable",
      "type": "function"
    },
    {
      "inputs": [
        {
          "internalType": "address",
          "name": "owner",
          "type": "address"
        }
      ],
      "name": "balanceOf",
      "outputs": [
        {
          "internalType": "uint256",
          "name": "",
          "type": "uint256"
        }
      ],
      "stateMutability": "view",
      "type": "function"
    },
    {
      "inputs": [
        {
          "internalType": "uint256",
          "name": "tokenId",
          "type": "uint256"
        }
      ],
      "name": "getApproved",
      "outputs": [
        {
          "internalType": "address",
          "name": "",
          "type": "address"
        }
      ],
      "stateMutability": "view",
      "type": "function"
    },
    {
      "inputs": [
        {
          "internalType": "address",
          "name": "owner",
          "type": "address"
        },
        {
          "internalType": "address",
          "name": "operator",
          "type": "address"
        }
      ],
      "name": "isApprovedForAll",
      "outputs": [
        {
          "internalType": "bool",
          "name": "",
          "type": "bool"
        }
      ],
      "stateMutability": "view",
      "type": "function"
    },
    {
      "inputs": [],
      "name": "name",
      "outputs": [
        {
          "internalType": "string",
          "name": "",
          "type": "string"
        }
      ],
      "stateMutability": "view",
      "type": "function"
    },
    {
      "inputs": [
        {
          "internalType": "uint256",
          "name": "tokenId",
          "type": "uint256"
        }
      ],
      "name": "ownerOf",
      "outputs": [
        {
          "internalType": "address",
          "name": "",
          "type": "address"
        }
      ],
      "stateMutability": "view",
      "type": "function"
    },
    {
      "inputs": [
        {
          "internalType": "address",
          "name": "from",
          "type": "address"
        },
        {
          "internalType": "address",
          "name": "to",
          "type": "address"
        },
        {
          "internalType": "uint256",
          "name": "tokenId",
          "type": "uint256"
        }
      ],
      "name": "safeTransferFrom",
      "outputs": [],
      "stateMutability": "payable",
      "type": "function"
    },
    {
      "inputs": [
        {
          "internalType": "address",
          "name": "from",
          "type": "address"
        },
        {
          "internalType": "address",
          "name": "to",
          "type": "address"
        },
        {
          "internalType": "uint256",
          "name": "tokenId",
          "type": "uint256"
        },
        {
          "internalType": "bytes",
          "name": "_data",
          "type": "bytes"
        }
      ],
      "name": "safeTransferFrom",
      "outputs": [],
      "stateMutability": "payable",
      "type": "function"
    },
    {
      "inputs": [
        {
          "internalType": "address",
          "name": "operator",
          "type": "address"
        },
        {
          "internalType": "bool",
          "name": "approved",
          "type": "bool"
        }
      ],
      "name": "setApprovalForAll",
      "outputs": [],
      "stateMutability": "nonpayable",
      "type": "function"
    },
    {
      "inputs": [
        {
          "internalType": "bytes4",
          "name": "interfaceId",
          "type": "bytes4"
        }
      ],
      "name": "supportsInterface",
      "outputs": [
        {
          "internalType": "bool",
          "name": "",
          "type": "bool"
        }
      ],
      "stateMutability": "view",
      "type": "function"
    },
    {
      "inputs": [],
      "name": "symbol",
      "outputs": [
        {
          "internalType": "string",
          "name": "",
          "type": "string"
        }
      ],
      "stateMutability": "view",
      "type": "function"
    },
    {
      "inputs": [
        {
          "internalType": "uint256",
          "name": "tokenId",
          "type": "uint256"
        }
      ],
      "name": "tokenURI",
      "outputs": [
        {
          "internalType": "string",
          "name": "",
          "type": "string"
        }
      ],
      "stateMutability": "view",
      "type": "function"
    },
    {
      "inputs": [],
      "name": "totalSupply",
      "outputs": [
        {
          "internalType": "uint256",
          "name": "",
          "type": "uint256"
        }
      ],
      "stateMutability": "view",
      "type": "function"
    },
    {
      "inputs": [
        {
          "internalType": "address",
          "name": "from",
          "type": "address"
        },
        {
          "internalType": "address",
          "name": "to",
          "type": "address"
        },
        {
          "internalType": "uint256",
          "name": "tokenId",
          "type": "uint256"
        }
      ],
      "name": "transferFrom",
      "outputs": [],
      "stateMutability": "payable",
      "type": "function"
    }
  ],
  "bytecode": "0x60806040523480156200001157600080fd5b5060405162000fdf38038062000fdf8339810160408190526200003491620001df565b8151620000499060029060208501906200006c565b5080516200005f9060039060208401906200006c565b5050600080555062000286565b8280546200007a9062000249565b90600052602060002090601f0160209004810192826200009e5760008555620000e9565b82601f10620000b957805160ff1916838001178555620000e9565b82800160010185558215620000e9579182015b82811115620000e9578251825591602001919060010190620000cc565b50620000f7929150620000fb565b5090565b5b80821115620000f75760008155600101620000fc565b634e487b7160e01b600052604160045260246000fd5b600082601f8301126200013a57600080fd5b81516001600160401b038082111562000157576200015762000112565b604051601f8301601f19908116603f0116810190828211818310171562000182576200018262000112565b816040528381526020925086838588010111156200019f57600080fd5b600091505b83821015620001c35785820183015181830184015290820190620001a4565b83821115620001d55760008385830101525b9695505050505050565b60008060408385031215620001f357600080fd5b82516001600160401b03808211156200020b57600080fd5b620002198683870162000128565b935060208501519150808211156200023057600080fd5b506200023f8582860162000128565b9150509250929050565b600181811c908216806200025e57607f821691505b602082108114156200028057634e487b7160e01b600052602260045260246000fd5b50919050565b610d4980620002966000396000f3fe6080604052600436106100bd5760003560e01c80636352211e1161006f5780636352211e146101af57806370a08231146101cf57806395d89b41146101ef578063a22cb46514610204578063b88d4fde14610224578063c87b56dd14610237578063e985e9c51461025757600080fd5b806301ffc9a7146100c257806306fdde03146100f7578063081812fc14610119578063095ea7b31461015157806318160ddd1461016657806323b872dd1461018957806342842e0e1461019c575b600080fd5b3480156100ce57600080fd5b506100e26100dd3660046109b0565b6102a0565b60405190151581526020015b60405180910390f35b34801561010357600080fd5b5061010c6102f2565b6040516100ee9190610a25565b34801561012557600080fd5b50610139610134366004610a38565b610384565b6040516001600160a01b0390911681526020016100ee565b61016461015f366004610a6d565b6103c8565b005b34801561017257600080fd5b50600154600054035b6040519081526020016100ee565b610164610197366004610a97565b610468565b6101646101aa366004610a97565b6105f9565b3480156101bb57600080fd5b506101396101ca366004610a38565b610619565b3480156101db57600080fd5b5061017b6101ea366004610ad3565b610624565b3480156101fb57600080fd5b5061010c610673565b34801561021057600080fd5b5061016461021f366004610aee565b610682565b610164610232366004610b40565b6106ee565b34801561024357600080fd5b5061010c610252366004610a38565b610738565b34801561026357600080fd5b506100e2610272366004610c1c565b6001600160a01b03918216600090815260076020908152604080832093909416825291909152205460ff1690565b60006301ffc9a760e01b6001600160e01b0319831614806102d157506380ac58cd60e01b6001600160e01b03198316145b806102ec5750635b5e139f60e01b6001600160e01b03198316145b92915050565b60606002805461030190610c4f565b80601f016020809104026020016040519081016040528092919081815260200182805461032d90610c4f565b801561037a5780601f1061034f5761010080835404028352916020019161037a565b820191906000526020600020905b81548152906001019060200180831161035d57829003601f168201915b5050505050905090565b600061038f826107ca565b6103ac576040516333d1c03960e21b815260040160405180910390fd5b506000908152600660205260409020546001600160a01b031690565b60006103d382610619565b9050336001600160a01b0382161461040c576103ef8133610272565b61040c576040516367d9dca160e11b815260040160405180910390fd5b60008281526006602052604080822080546001600160a01b0319166001600160a01b0387811691821790925591518593918516917f8c5be1e5ebec7d5bd14f71427d1e84f3dd0314c0f7b2291e5b200ac8c7c3b92591a4505050565b6000610473826107f1565b9050836001600160a01b0316816001600160a01b0316146104a65760405162a1148160e81b815260040160405180910390fd5b60008281526006602052604090208054338082146001600160a01b038816909114176104f3576104d68633610272565b6104f357604051632ce44b5f60e11b815260040160405180910390fd5b6001600160a01b03851661051a57604051633a954ecd60e21b815260040160405180910390fd5b801561052557600082555b6001600160a01b038681166000908152600560205260408082208054600019019055918716808252919020805460010190554260a01b17600160e11b17600085815260046020526040902055600160e11b83166105b057600184016000818152600460205260409020546105ae5760005481146105ae5760008181526004602052604090208490555b505b83856001600160a01b0316876001600160a01b03167fddf252ad1be2c89b69c2b068fc378daa952ba7f163c4a11628f55a4df523b3ef60405160405180910390a4505050505050565b610614838383604051806020016040528060008152506106ee565b505050565b60006102ec826107f1565b60006001600160a01b03821661064d576040516323d3ad8160e21b815260040160405180910390fd5b506001600160a01b031660009081526005602052604090205467ffffffffffffffff1690565b60606003805461030190610c4f565b3360008181526007602090815260408083206001600160a01b03871680855290835292819020805460ff191686151590811790915590519081529192917f17307eab39ab6107e8899845ad3d59bd9653f200f220920489ca2b5937696c31910160405180910390a35050565b6106f9848484610468565b6001600160a01b0383163b156107325761071584848484610852565b610732576040516368d2bf6b60e11b815260040160405180910390fd5b50505050565b6060610743826107ca565b61076057604051630a14c4b560e41b815260040160405180910390fd5b600061077760408051602081019091526000815290565b905080516000141561079857604051806020016040528060008152506107c3565b806107a284610949565b6040516020016107b3929190610c8a565b6040516020818303038152906040525b9392505050565b60008054821080156102ec575050600090815260046020526040902054600160e01b161590565b60008160005481101561083957600081815260046020526040902054600160e01b8116610837575b806107c3575060001901600081815260046020526040902054610819565b505b604051636f96cda160e11b815260040160405180910390fd5b604051630a85bd0160e11b81526000906001600160a01b0385169063150b7a0290610887903390899088908890600401610cb9565b602060405180830381600087803b1580156108a157600080fd5b505af19250505080156108d1575060408051601f3d908101601f191682019092526108ce91810190610cf6565b60015b61092c573d8080156108ff576040519150601f19603f3d011682016040523d82523d6000602084013e610904565b606091505b508051610924576040516368d2bf6b60e11b815260040160405180910390fd5b805181602001fd5b6001600160e01b031916630a85bd0160e11b149050949350505050565b606060a06040510180604052602081039150506000815280825b600183039250600a81066030018353600a90048061098057610985565b610963565b50819003601f19909101908152919050565b6001600160e01b0319811681146109ad57600080fd5b50565b6000602082840312156109c257600080fd5b81356107c381610997565b60005b838110156109e85781810151838201526020016109d0565b838111156107325750506000910152565b60008151808452610a118160208601602086016109cd565b601f01601f19169290920160200192915050565b6020815260006107c360208301846109f9565b600060208284031215610a4a57600080fd5b5035919050565b80356001600160a01b0381168114610a6857600080fd5b919050565b60008060408385031215610a8057600080fd5b610a8983610a51565b946020939093013593505050565b600080600060608486031215610aac57600080fd5b610ab584610a51565b9250610ac360208501610a51565b9150604084013590509250925092565b600060208284031215610ae557600080fd5b6107c382610a51565b60008060408385031215610b0157600080fd5b610b0a83610a51565b915060208301358015158114610b1f57600080fd5b809150509250929050565b634e487b7160e01b600052604160045260246000fd5b60008060008060808587031215610b5657600080fd5b610b5f85610a51565b9350610b6d60208601610a51565b925060408501359150606085013567ffffffffffffffff80821115610b9157600080fd5b818701915087601f830112610ba557600080fd5b813581811115610bb757610bb7610b2a565b604051601f8201601f19908116603f01168101908382118183101715610bdf57610bdf610b2a565b816040528281528a6020848701011115610bf857600080fd5b82602086016020830137600060208483010152809550505050505092959194509250565b60008060408385031215610c2f57600080fd5b610c3883610a51565b9150610c4660208401610a51565b90509250929050565b600181811c90821680610c6357607f821691505b60208210811415610c8457634e487b7160e01b600052602260045260246000fd5b50919050565b60008351610c9c8184602088016109cd565b835190830190610cb08183602088016109cd565b01949350505050565b6001600160a01b0385811682528416602082015260408101839052608060608201819052600090610cec908301846109f9565b9695505050505050565b600060208284031215610d0857600080fd5b81516107c38161099756fea264697066735822122049481601207defb4066563b038052a4fb15bbed45670ca9474d661d6cf3821f064736f6c63430008090033",
  "linkReferences": {},
  "deployedLinkReferences": {}
}